:02000002F0000C
:10700000F0FF032039730F0061730F0063730F00EB
:1070100065730F0067730F0069730F0000000000B5
:1070200000000000000000000000000021BB0F0075
:107030006D730F00000000006F730F0071730F007D
:1070400073730F0073730F0073730F0073730F006C
:1070500073730F0073730F0073730F0073730F005C
:1070600073730F0073730F0073730F0073730F004C
:1070700073730F0073730F0073730F0073730F003C
:1070800009BB0F0055BD0F0073730F0073730F0022
:1070900073730F0073730F0091BB0F0073730F00B6
:1070A00073730F0073730F0073730F0073730F000C
:1070B00073730F0073730F000000000000000000E6
:1070C00073730F0073730F0073730F0073730F00EC
:1070D00073730F0073730F0073730F0073730F00DC
:1070E00073730F0073730F0073730F0000000000C1
:1070F0000000000073730F000000000073730F00A6
:10710000000000000000000000000000000000007F
:10711000000000000000000000000000000000006F
:10712000000000000000000000000000000000005F
:10713000000000000000000000000000000000004F
:10714000000000000000000000000000000000003F
:10715000000000000000000000000000000000002F
:10716000000000000000000000000000000000001F
:10717000000000000000000000000000000000000F
:1071800000000000000000000000000000000000FF
:1071900000000000000000000000000000000000EF
:1071A00000000000000000000000000000000000DF
:1071B00000000000000000000000000000000000CF
:1071C00000000000000000000000000000000000BF
:1071D00000000000000000000000000000000000AF
:1071E000000000000000000000000000000000009F
:1071F000000000000000000000000000000000008F
:1072000010B5054C237833B9044B13B10448AFF3E0
:1072100000800123237010BD585900200000000099
:107220003CCD0F0008B5034B1BB103490348AFF336
:10723000008008BD000000005C5900203CCD0F001C
:10724000154B002B08BF134B9D46A3F5803A002138
:107250008B460F461348144A121A00F063F80F4B7E
:10726000002B00D098470E4B002B00D098470020F1
:10727000002104000D000D48002802D00C48AFF397
:10728000008000F02BF82000290004F06DFD00F0D4
:1072900011F800BF00000800F0FF0320000000000C
:1072A0000000000058590020D47B0020000000009E
:1072B0000000000008B5074B044613B10021AFF3EE
:1072C0000080054B1868836A03B19847204600F098
:1072D00031F800BF0000000034C70F0070B50D4D3D
:1072E0000D4C641BA4100026A64209D10B4D0C4C7A
:1072F00005F014FA641BA4100026A64205D170BD47
:1073000055F8043B98470136EEE755F8043B98479B
:107310000136F2E73859002038590020385900204A
:107320003C59002002440346934200D1704703F8C1
:10733000011BF9E7FEE700BF0649074A074B9B1A06
:1073400003DD043BC858D050FBDC04F03DFCFFF7E4
:1073500077FF0000A0CD0F00B8570020585900203B
:10736000FEE7FEE7FEE7FEE7FEE7FEE7FEE7FEE7F5
:10737000FEE7FEE72DE9F047194C07461D4620467B
:10738000184B63608846914601F096FBA24620BBED
:10739000154E2660FFB1B8F1000F08D1DAF80430BD
:1073A0002968DA6891420FD248F2145015E06368F8
:1073B00042465B6839462046984770B92368B34215
:1073C000ECD048F2025008E02A4649469B6804483F
:1073D000BDE8F047184748F21050BDE8F08700BFFD
:1073E000C0740020ACCA0F006E52464870B5EFF36F
:1073F000108672B60D4A94680123A4B993600C4BB1
:107400000C4DD3F8801029401160C3F88050D3F898
:10741000841051604FF0FF32C3F88420047006B925
:1074200062B6002070BD0370F9E700BF50780020FD
:1074300000E100E0FC06FFBD38B5074C05462068BA
:1074400018B1294601F030FB18B923682B6025607C
:1074500038BD2468F3E700BF8061002010B5064BFB
:10746000002253E8001F01EA020043E8000494F000
:10747000000FF6D110BD00BF907400200A4AD2F868
:1074800000347BB109480023D2F80815D940C90758
:1074900048BF03F5C07103F1010348BF42F8210062
:1074A000072BF1D1704700BF000001403546526EF6
:1074B000024B1B780BB1FFF7E1BF70474878002003
:1074C000014B01221A7070479474002000B10047EC
:1074D000704741DF70470000BFF34F8F0549064BEF
:1074E000CA6802F4E0621343CB60BFF34F8F00BF62
:1074F000FDE700BF00ED00E00400FA0508B5FFF766
:10750000EBFF43681A44426011B101399A4201D13C
:107510000120704713F8010B01F8010FF6E7000096
:107520005B689A68054B9A4207D1D0E90123044968
:1075300001320A60034A013B1360704700C90F0023
:10754000407500203C75002043F204031A68084B84
:107550009A4201BF43F20803186800F6FF7020F456
:107560007F600CBF20F00F004FF48050704700BFC9
:10757000DBE5B15108B5FFF7E7FF054B9B69184400
:1075800000F6FF7020F47F6020F00F0008BD00BF00
:1075900060780020F8B5094E094CA41B0746E408A2
:1075A00000250436A54201D10020F8BD56F835303B
:1075B000384698470028F8D10135F3E740CD0F0051
:1075C00048CD0F0029DF7047014B06201B68184784
:1075D0006C75002018DF704743690BB1C06818470D
:1075E000704769B10B78022B0CD1022804D0032814
:1075F0000CBF11200820704703230B700020704738
:107600000E2070470820704738B1054B0360054BCA
:10761000436001230372002070470E20704700BFB3
:1076200095810F00E3750F0013DF704766DF704729
:1076300062DF7047B5DF7047B1DF7047B0DF70477A
:10764000AEDF70477FB50023CDF80A30ADF80E30BD
:107650000A4BADF806109B89ADF8083001238DF870
:107660000A300DF10603CDE90430054B02A9188854
:10767000FFF7E6FF07B05DF804FB00BF387200209B
:107680002A59002010B5044686B01122002101A815
:10769000FFF748FE2378082B0BD1364A364913886A
:1076A0000988013B9BB21380D1B1CBB90323118070
:1076B0002370627823788DF805306021012A8DF8D7
:1076C00004108DF806200DD00B2A11D12B4B002170
:1076D0001A788DF807201970042101A8FFF7B2FF6E
:1076E00006B010BD062B05D0082B29D0032B27D0C0
:1076F0000321F2E7E1688DF80710D4E90123080AB5
:107700008DF80800080C090E8DF80A10110A8DF882
:107710000B208DF80C10110C120E8DF80E201A0A89
:107720008DF80F308DF810201A0C1B0E8DF80D10EF
:107730008DF809008DF811208DF812300F21CCE75B
:10774000D4E90123110A8DF807208DF80810110CD7
:10775000120E8DF80A201A0A8DF80B308DF80C20C5
:107760001A0C1B0E8DF809108DF80D208DF80E30B7
:107770000B21B2E70277002000770020647500201B
:10778000ADDF7047AADF7047A8DF704790DF704712
:107790008FDF704786DF70477FDF70477DDF704780
:1077A0007CDF70477ADF704776DF704775DF7047A0
:1077B00074DF704773DF704772DF704730B518228F
:1077C0008DB000210DEB0200FFF7ACFD28230893DC
:1077D0001623ADF806300023CDF80E30CDF8123068
:1077E000ADF816301A4B02930222062109251A70B1
:1077F00099701A71032159220124D9705A710DF11F
:107800000601FE2258198DF818408DF82D40ADF86C
:107810000C505C709A71FFF7C1FFB8B9BDF8062033
:107820001D721119D971BDF80C301A44094BADF80D
:107830000C2002A906AA1846FFF7BEFF30B9187837
:10784000FFF7B6FF21461878FFF7B4FF0DB030BD43
:1078500064720020285900206DDF70476CDF70478C
:10786000062810B5044602D10020FFF793FE044B12
:107870001B681BB12046BDE81040184710BD00BF73
:107880002478002010B5012203680446984710B1FF
:10789000A368013BA36010BD10B50B689A684B68E4
:1078A0000024C0E90243C0E9002294782344036124
:1078B00092F90340234443614B68036101F10C03D7
:1078C0004361537803F0C003802B04BF043101618E
:1078D00010BD2DE9F347002580460F462E462C4665
:1078E000D8F8083023B30DF107014046FFF7CAFF6F
:1078F000F0B19DF807C00CF07F025FFA82F9A4F1A5
:107900002003C4F1200109FA03F329FA01F109FA6D
:1079100004F20B431CF0800F45EA020546EA030619
:1079200004F1070402D1C7E9005602E0462CD7D182
:10793000002002B0BDE8F087F7B50F46694616464D
:10794000FFF7C7FFB0B1DDE90013002501F0010426
:107950004A0842EAC37254EA05014FEA530314BFCE
:10796000DD431D463B7914BFD4431446082B03D195
:10797000C6E9004503B0F0BD042B08D134602246AF
:10798000D317AB4206BFA24201200020F2E7022B30
:1079900003D123B233801AB2F2E7012B03D163B2D1
:1079A00033705AB2ECE70020E4E773B50C46694641
:1079B0001646FFF78EFF68B12379082B0CD1DDE95D
:1079C0000045C6E90045DDE90023AB4206BFA242FF
:1079D0000120002002B070BD042B04D1009B336055
:1079E0001C460025EFE7022B4FF0000004D1009B5E
:1079F00033809CB20546E6E7012BEBD1009B337048
:107A000003F0FF04F6E737B50D4669461446FFF765
:107A100060FF30B12A79082ADDE9003103D1C4E9D9
:107A2000003103B030BD042A18464FEAE37108D193
:107A300023601A460B468B4206BF8242012000207B
:107A4000EFE7022A04D11BB223801AB2D317F2E760
:107A5000012A03D15BB223705AB2F7E70020E0E7B6
:107A60002DE9F34183680746884623B9002630464E
:107A700002B0BDE8F0810DF10701FFF703FF0646F4
:107A80000028F3D09DF80740220616D504F07F04A5
:107A90000725BB68002BE9D00DF107013846FFF739
:107AA000F1FE0028E2D09DF8072002F07F03AB40F2
:107AB0001C43130605F1070502D4C8F80040D6E7B9
:107AC000232DE6D1D2E773B50D4601A90446FFF791
:107AD000C7FF064618B90026304602B070BD94E8CC
:107AE0000F0085E80F0001998A42F4D3A960A368CA
:107AF0005B1AA360F0E7000030B5044685B0154678
:107B0000A9B90268114B9A4211D0102D06D82A4605
:107B100069462046FFF7F0FF05B030BD10226946E8
:107B20002046FFF7E9FF0028F6D0103DEDE7A368F7
:107B3000AB4201D20020EFE723682A46204698474F
:107B40000028F7D0A3685D1BA560E5E703750F006B
:107B5000F7B50E4601A907461546FFF781FFA8B104
:107B6000019A0123D3184FF0000404D2717801F078
:107B7000C001802901D1204608E031799942FAD329
:107B800029463846FFF7B8FF019BEC5403B0F0BD1F
:107B900073B50D4601A906461446FFF761FF90B183
:107BA000019AFF2A11D86B7803F0C003802B02F1F1
:107BB00001010AD02B798B4207D32146304601F8C8
:107BC000012BFFF799FF02B070BD0020FBE713B552
:107BD000144669460822FFF78FFF18B1DDE900233C
:107BE000C4E9002302B010BD13B5144604220DEB06
:107BF0000201FFF781FF08B1019B236002B010BDB5
:107C000013B5044605291FD8DFE801F0030F151E40
:107C10001E1C012201A92046FFF76EFF18B19DF935
:107C20000430002BF5DB02B010BD082200212046F5
:107C3000FFF762FFF7E701A9FFF712FF0028F2D074
:107C4000019AF3E70422F1E70020ECE710B543685E
:107C50001A787AB103F10C0242601A7B62B90168AA
:107C6000C368C0E901128C782344036191F90310C1
:107C70000B444361104620E059781A7901F0300432
:107C8000302C1BD15C7B04F03004302C1ED1997851
:107C90000269521A02610022597811F0300F02BFB6
:107CA000816801318160997B114402690A44026153
:107CB00093F90F301A444261012010BD01F0F00425
:107CC000202C03D1597911FB02F2E5E701F0C00144
:107CD000802908BF0422DFE7013A024401398242C9
:107CE00000D2704711F8013F02F80139F7E74BDF86
:107CF000704761DF704769DF704760DF704770472A
:107D000011DF704710DF70470F4B30B50124C3F807
:107D10000445BFF36F8FBFF34F8F01EB8202401A10
:107D2000914207D10022C3F80425BFF36F8FBFF340
:107D30004F8F30BD441851F8045B2560D3F80044E0
:107D4000002CFBD0ECE700BF00E001400A4B022210
:107D5000C3F80425BFF36F8FBFF34F8FC3F8080537
:107D6000D3F80024002AFBD00022C3F80425BFF377
:107D70006F8FBFF34F8F704700E00140054B1B68CA
:107D8000082B01BF044B1868B0FA80F0400918BFF7
:107D9000002070473001001034010010436843B1E7
:107DA000026891680B4443605268934204BF002309
:107DB000436070477FB50C4D0C4C0D4E01A8FFF78A
:107DC00096FF78B9B44218BF204602950390039BF2
:107DD000002BF3D00198D3E90021904702A8FFF7C8
:107DE000DDFFF4E704B070BD18CD0F0090CD0F009B
:107DF00098CD0F0030B5104DC7B04FF486740DF11B
:107E0000020103A8ADF80240FFF773FF88B90B4BDE
:107E10000B4A0195934208BF03460293029B002B35
:107E2000EDD003A8D3E90021904701A8FFF7B6FFE2
:107E3000F4E747B030BD00BF00CD0F0068CD0F00A4
:107E400070CD0F00024B1B780BB1FFF7D3BF70470B
:107E50002078002013B50A4B00930A4A0A4B93423C
:107E600008BF002304460193019B0BB902B010BD6B
:107E70002046D3E9002190476846FFF78FFFF3E7DC
:107E800030CD0F0078CD0F0070CD0F0013B50C4B27
:107E900000930C4A0C4B934208BF00230446019305
:107EA000019808B902B010BDD0E9003120469847CA
:107EB00018B16846FFF772FFF2E71120F2E700BF42
:107EC0000CCD0F0090CD0F0088CD0F00034B187A1A
:107ED0000122B0FA80F05A7440097047787400208B
:107EE000024B187A003018BF0120704778740020C8
:107EF00000207047002070470846704708467047CA
:107F00000D4B10B5012143600C4B53E8002F42EAA2
:107F1000010043E8000494F0000FF6D14AB9084983
:107F200009781974074B08499A60C3E90012074A97
:107F3000DA60002010BD00BFC8CB0F0078740020AD
:107F4000667500206074002084720020DC011C0033
:107F500070B50568AB6886B004460E4673B114224E
:107F600000216846FFF7DEF9A3680593237901969F
:107F700033B1012B0ED0AB686846984706B070BD90
:107F800001238DF8003023690293E368039363694A
:107F90000493F0E702238DF80030E3681B0302939B
:107FA000F5E728DF70470000024B1868003018BF63
:107FB0000120704790740020F0B515461F4687B029
:107FC00004460E46144B012253E8001F41EA02000A
:107FD00043E8000C9CF0000FF6D131B111200CE009
:107FE00006EB0130FFF7B2FE01318D42F8D1FFF709
:107FF00035FAA368002413B9184607B0F0BD022271
:1080000068468DF80020CDE90146CDE90345059786
:1080100098472046F1E700BF907400202DE9F04317
:10802000174687B0814688461E460125134A52E806
:10803000004F44EA050342E8003191F0000FF6D109
:10804000CCB9B20839464046FFF75EFEFFF706FAA4
:10805000D9F808201AB9104607B0BDE8F0830E9B86
:108060008DF800506846CDE90148CDE903760593C7
:1080700090472046F0E71120EEE700BF9074002003
:1080800008B5FFF7EBF9002008BD0000014B436085
:1080900000207047C8CB0F0013B550E8023F1FFA0D
:1080A000A3F4B0F806C0644502BFBFF32F8F0022CF
:1080B00011E0B0F80EC06444B0F80CC0644528BFAD
:1080C000A4EB0C04C3EA044440E8024CBCF1000FEA
:1080D000E3D14FF001028DF803200193019B9DF83D
:1080E00003000B6002B010BD13B550E8013F9CB215
:1080F000B0F80EC06444B0F80CC0644528BFA4EBCF
:108100000C04B0F808C0644502BFBFF32F8F0022F3
:1081100008E0C4EA030440E8014CBCF1000FE4D1DC
:108120004FF001028DF803200193019B9DF803009D
:108130000B6002B010BD50E8022FC2EA224240E8B4
:108140000223002BF7D1704750E8012FC2EA024208
:1081500040E80123002BF7D17047000030B53AB159
:108160001368DB430A4D0144884204D1D84330BD33
:108170004FF0FF33F6E710F8012B5340082213F0BD
:10818000010418BF2C46013A84EA5303F7D1EBE708
:108190002083B8ED70B504460D4601B30B78042B6F
:1081A00004D8DFE803F01E05031E1E00112070BD79
:1081B0000D4ED6F89C3190B1013312D10022182116
:1081C0000430FFF7CBFF07222060214606F5CE7072
:1081D000FFF7F8F90028EAD102232B70E7E70E2019
:1081E000E5E70820E3E700BF00F00F0010B5084BFB
:1081F0009A685AB150B9EFF3108172B6054A1C68FB
:1082000014605C685460986001B962B6002010BDCB
:108210005078002000E100E013B5002304460DF182
:1082200007008DF80730FFF7E1F8074A1368591C7B
:108230001160064AA41AE4091C709DF80700FFF7B4
:10824000D5FF02B010BD00BF846100208C6100200A
:10825000FFF7E2BFF7B51B4F3B7873B31A4E01200F
:108260003070FFF713FE11284FF0000527D00220D1
:10827000FFF7F0FD0DF107008DF80750FFF7B6F896
:10828000FFF73EFD04469DF807003D70FFF7AEFF87
:1082900054B90E4B34709A684AB11A6822F48002BD
:1082A0001A600320FFF7D6FD204603B0F0BD084B4F
:1082B0004FF48002C3F88020F3E70824F4E72C464B
:1082C000F2E700BF66750020657500205078002039
:1082D00000E100E038B514490A6812F0010321D02A
:1082E000124B98421ED0124B18884FF6FF739842DB
:1082F00013D042F004020A601321FFF755FA90B937
:108300000C4DC82445F001054FF47A40A847013CC4
:10831000FAD1BDE83840FFF79DBF074B1878FFF74B
:1083200047FAF6E7002038BD8C74002040CD0F00DE
:108330002A590020B0C80F002859002073B51F4EDD
:108340003478002C38D11E4D012320462B70FFF7C6
:108350009DFD112829D02046FFF77CFD0DF1070077
:108360008DF80740FFF742F816491748FFF7CAFC97
:108370000446B0FA80F0400930709DF80700FFF71E
:1083800035FF94B9114A2C7092F816335B09012B12
:1083900008D9042B06D00E4B996849B11A6842F4EB
:1083A00080021A600120FFF755FD204602B070BD23
:1083B0004FF480031360F5E70824F6E766750020A4
:1083C00065750020FF7C0F00F0C70F0000E100E0A2
:1083D0005078002038B5831E012B52D8294C237ABF
:1083E000002B4ED0022B09D1032833D0264B00227C
:1083F0001B68E2601A7942B1012A25D0637C002B08
:1084000031D1BDE8384000F049B8D3E905128D1AE2
:10841000142D94BF521914329A619142EED1022860
:108420004FF0000308BF19462372174B18BF0D21E8
:108430001868FFF78DFD154B1A885B889A42DDD1CD
:108440001348FFF778FED9E71A6901321A615B69B0
:108450009A42E3E7E3680133082B01D8E360CDE7F4
:108460000023E360DBE70B4B1B7853B10A4B1B780F
:108470001BB1BDE83840FFF7EDBEBDE83840FFF75F
:108480005DBF38BD787400207075002038750020FD
:10849000607400206575002066750020F8B5294CD1
:1084A000294D237A83B9294F294E39463046FFF7A3
:1084B000F3FD18B9286000236360F8BD7A8833683B
:1084C00013442B60002BF6D0022323722B681A79F9
:1084D00092B1012A26D018460321FFF739FD002367
:1084E00023726360194B1A885B889A42E5D1184859
:1084F000BDE8F840FFF71FBED3E90520121A142A81
:1085000028BF1422D3E903159208012A014438BF79
:1085100001222844FFF756F850B11128DBD101237E
:108520002372CAE7D3E903021044FFF73AFDF3E7E9
:10853000237C002BC1D10146BDE8F8400220FFF7A3
:1085400049BF00BF78740020707500203875002086
:108550006074002000F0FD03012B08D1044B0022C1
:108560005A74421E504250411874FFF797BF70472B
:10857000787400200A4930B40B1D012253E8000F23
:1085800040EA020443E8004595F0000FF6D120B917
:108590004B7C13B930BCFFF781BF30BC704700BFC4
:1085A0007874002073B5154C06460D46204601A987
:1085B000FFF79AFDF0B1BDF804302268D11819D048
:1085C000D654BDF80420BDF806304D609A420FD154
:1085D0002046FFF7B9FD0A4B93F9043001215A09EF
:1085E00003F01F0301FA03F34032064941F8223039
:1085F000002000E0042002B070BD00BFD077002052
:108600002C59002000E100E0094B99420DD8094B9C
:1086100002611B68D3F804350B444360836803B1DF
:10862000816001460020FFF7BDBF0720704700BFF3
:1086300017FCFF002C590020F8B5434F3B78044647
:108640000D46164613BB4FF08043D3F81824D103D0
:1086500037D53E4B3E4A1A600022C3E901223D4A0B
:10866000DA603D4A3D4953793D4841F823003D4891
:1086700000EBC3031B7963B33B4A3C4BD36000213F
:1086800091603B4AD360012393603B7000232375C4
:1086900021460120FFF786FF002D54D04FF40047FC
:1086A0004FF4FA7000214FF47A720023E7FB0501C2
:1086B00003F0B2FE324601462046BDE8F840FFF71F
:1086C000A3BF2C4A01211160D3F81824D203FBD593
:1086D000BFE71168C1F8083592F90430002BD9B210
:1086E00028DADFF898C001F00F0EF4444FF0E00EE6
:1086F0008CF818E05B099B0003F160434FF0010C1C
:1087000003F5614301F01F010CFA01F1C3F8801178
:108710001960537900EBC30140F83320136881F8E6
:1087200004C00222C3F84423C3F80423124B83F885
:1087300000C0A1E703F1604C0CF5614C4FF0E00E76
:108740008CF800E3D6E7F8BD7C610020D0770020EC
:1087500078770020580008002C590020B8740020B9
:108760006D880F00307200204C720020CD740F0015
:108770003078002008000040B5740020FCEC00E0D8
:1087800070B5134DD5F80034EBB1D5F80445114B55
:10879000640904EB440449F63F46B4428CBF00220E
:1087A00001221A70FEF76AFEB44203D9D5F80C35DF
:1087B000DB0704D5084A0948A108FFF73DFF084B2D
:1087C0004FF480321A60074B01221A7070BD00BF4F
:1087D0000000014048780020B1740F00307800207C
:1087E00000E100E0945D0020C31E10B50446042B98
:1087F0000AD8DFE803F0030309101000074A08480D
:1088000047F23051FFF718FF064B1B682BB120468B
:10881000BDE810401847FEF75FFE10BDFD740F0065
:108820004C7200202878002038B50F4B1D78044684
:108830009DB1B8B1037D03F0FF0573B1D0E90330FA
:108840009847A3685BB1227D02F0FF053AB16268E8
:10885000134463602046FEF7EFFD284638BD00252F
:108860002575FAE70546F8E7B57400202DE9FF47BE
:108870000368D3F804210646002A7ED13368D3F872
:1088800040216AB10025C3F84051D3F840317F4CF4
:108890000293029B23681BB12068FFF7C5FF256088
:1088A0007B4C03A92046FFF7F7FB002840F08880A7
:1088B000DFF8E481754CC146D8F80030002B00F099
:1088C000D2805A6823685B68216851B12168002909
:1088D00050D09A424ED223681B7D13B12068FEF718
:1088E000ABFDD9F8007017B13B68C9F80030DFF86C
:1088F000B4A17D68DAF800304FF48032C3F8082361
:10890000C3F848230022C3F84021D3F84021039242
:1089100025F07F45039AD3F84025C3F84055D3F896
:108920000435D31A23F07F43012B05D1594B4FF463
:10893000046043F001039847DAF800204FF48033D5
:10894000C2F84433D2F80435ED1A290225F07F43EA
:1089500040F1908043F07F4313F57A7F00F38D80E0
:108960004FF48033C2F80433236813B9336801220B
:108970001A60276004B0BDE8F0870022C3F8042124
:10898000D3F80431414A0193019B13682BB113685A
:108990005B68126823F07F4353603F4B1C68002CD8
:1089A0003FF46CAF6368B3F1807F04D22046FFF7D9
:1089B0003BFF2468F3E7636823F07F436360F8E7D5
:1089C000BDF80E302268314F334D1344002B3FF475
:1089D0006FAF1A78012A34D04AB1022A1CD1002282
:1089E0002B68002B4DD0196829601A75F8E75A6872
:1089F000117D89B9012111755A6830685168D0F824
:108A00000405091A2548814282BF516821F07F413F
:108A100051605868FEF710FDBDF80C20BDF80E300F
:108A20009A4202D11A48FFF786FB03A91848FFF7BC
:108A300033FB00283FF43CAFBDF80E3022681344EE
:108A4000C4E75A683B689A4204BF00233B602B6826
:108A50002946002BE0D09A4202D113680B60DBE775
:108A600019461B68F5E72368002B83D13368012280
:108A70005A607FE7022B3FF773AF3846FFF7D4FE0B
:108A80001AE7074B01221A70C6E700BF4C78002096
:108A9000D0770020B0C80F008061002017FCFF00D5
:108AA000B57400202C59002040684B6898428CBF58
:108AB000002001207047000010F1080F30B51CD0D5
:108AC0000F4A104900240025C0E91445C0E91612D8
:108AD0000D4C0E4A0E4DC0E918420E4AC0E91A521A
:108AE0000D4A026702F17452A2F523020023A2F696
:108AF000924283644267184630BD0E20FCE700BFF7
:108B000085AE67BB67E6096A72F36E3C3AF54FA51E
:108B10007F520E518C68059BABD9831F2DE9F04F16
:108B2000C9B008AA01F1400514464B780E781B0421
:108B300043EA0663CE7833438E78043143EA062352
:108B40008D4244F8043BF0D11024916B16464FEA55
:108B5000F14383EA714383EA9123716A366852F8DC
:108B6000045F31440B444FEAB54181EAF51181EAD3
:108B7000D50101340B44402CD363E6D1D0E914E392
:108B80000093836D0193C36D0293036E0393436E51
:108B90000493836E0593C36E0693DDE9057BDDE9DF
:108BA000031CDDE901592B4B009E079374464FF0DF
:108BB0000008079B53F8042B07934FEAF12383EA3D
:108BC000B11383EA716A08AB53F828301A440AEBF0
:108BD000020327EA010A01EA0C028AEA02021A44A5
:108BE0004FEA743A86EA05035A448AEAB40A06EA66
:108BF000050B234083EA0B038AEAB45A08F1010803
:108C00009A44B8F1400F02EB0903BB465244A9460F
:108C100019D172440265009A22444265019A324495
:108C20008265029A2A44C265039A1A44049B02662A
:108C30000B444366059B63448366069B3B44C366C3
:108C400049B0BDE8F08F674635468C462646194642
:108C50001446AEE7C4CA0F002DE9F04110F1080731
:108C6000044622D012B90020BDE8F081E9B10D46DA
:108C70008E184FF00008B542F5D0A36C15F8011B13
:108C8000E2180133402B1172A364F4D139463846FF
:108C9000FFF744FFD4E9143213F5007342F10002E8
:108CA000C4E91432C4F84880E5E70E20DCE7000090
:108CB00000487047F4C70F0000EB81010023884291
:108CC00000D3704751F8042D43EA52030B60D307D9
:108CD000F5E710B5013A52B2130601D5002010BDD8
:108CE00050F8224051F822309C4205D802F1FF3260
:108CF000F2D24FF0FF30F2E70120F0E710B5002389
:108D00005CB2A24200DC10BD51F8234040F8234081
:108D10000133F5E7013910B549B2041D0A06CBB29B
:108D200004D4013954F82120002AF7D001335BB272
:108D300073B103F18042013A50F82220002022B999
:108D4000013B00EB431318B210BD52080130F6E7A7
:108D50001846F9E74A11012350F8220001F01F01DB
:108D600003FA01F10840704710B500231A465CB2BF
:108D7000A14203DCB2FA82F0400910BD50F8234052
:108D800001332243F3E7002310B51C465AB2914247
:108D900000DC10BD40F823400133F7E7F8B50E467C
:108DA000D11C48BF911D144641F387010546671E3B
:108DB000FFF7E9FF00214AB2A24201F1010100DB05
:108DC000F8BDBB1A23F00300B25C03F00303DB0021
:108DD00002FA03F32A581A432A50ECE72DE9F04F20
:108DE000A5B01D4604ABCDE90231814629461046A7
:108DF0001746FFF78FFFC0EB851004B2002C264604
:108E0000B8BF04F11F06634246F3471603F01F0381
:108E100004F01F0814A858BFC3F100083146FFF73B
:108E2000B2FFB8F1000F30B22DDD14AB002203EB1E
:108E30008000C8F1200C13469D4219D82FB27B0048
:108E4000019314AB03EB870705F1FF3824AB012630
:108E500003EB8808002C54DA24AB03EB86062A4681
:108E600056F8881C4846FFF749FF25B0BDE8F08F4B
:108E700057F8236006FA08F10A4340F8042B01333F
:108E800026FA0CF2D8E714AB2A46394603EB8000E9
:108E9000FFF734FFD2E70FFA82FE5AF8883C53F806
:108EA0002EB024AB03EB8202013052F8403C0B445D
:108EB000BBEB030334BF012200229B4518BF1146C0
:108EC0005CF8882C42F82E30019B42B29A42E2DBD9
:108ED000731A5E42294614A85E41FFF7EDFE24ABEB
:108EE00003EB8503294653F8402C58F8403C38469C
:108EF00043EAC273013C48F8403C24B2FFF7DCFE71
:108F0000A8E724AB0020C6F1010C014603EB860A5A
:108F100003EB8C0CD8E72DE9F041013B00249B00CA
:108F200025462646A4465FF0000E03E05FEA0C0EDD
:108F3000BEEB030EBCEB0E0752F8078051F80E7023
:108F4000A7FB0878E41955EB080556F100061EF159
:108F5000040E9E4501DCE645ECDD40F80C402C4655
:108F6000354600261CF1040C9C45DCDDBCEB430FB0
:108F7000DCDD40F80C40BDE8F08130B51C4691B016
:108F8000054693F900306846FFF7C5FFD4F8B030C6
:108F900069462846984711B030BD13460A46FFF788
:108FA000ECBFF0B5154689B01C4607460E461A467A
:108FB00029466846FFF7F1FF23466A463946384698
:108FC000FFF7DBFF23462A4669466846FFF7D5FFD1
:108FD00023466A4631463046FFF7CFFF09B0F0BD61
:108FE000C3F10803DB0070B50133002403A500BF03
:108FF0005B1920C940CAAD1B20C0184720C940CA10
:10900000B54120C020C940CAB54120C020C940CACE
:10901000B54120C020C940CAB54120C020C940CABE
:10902000B54120C020C940CAB54120C020C940CAAE
:10903000B54120C06441B4FA84F0400970BD00BF5E
:10904000C3F10803DB0070B50133002403A500BFA2
:109050005B1920C940CAAD1920C0184720C940CAB1
:10906000754120C020C940CA754120C020C940CAEE
:10907000754120C020C940CA754120C020C940CADE
:10908000754120C020C940CA754120C020C940CACE
:10909000754120C06441204670BD00BFF0B5082274
:1090A00089B00C460646FFF729FECB6A03930B6B8B
:1090B00004934B6B05938B6B0693CB6B0793002745
:1090C00008236A4669466846CDE901770097FFF7AD
:1090D000B7FF082305466A4631463046FFF7B0FF22
:1090E000236B0393636B0493A36B0593E36B0544BA
:1090F000CDE906376A46082369466846FFF7A0FFB0
:10910000082305446A4631463046FFF799FF236A33
:109110000093636A0193A36A0293A36B0693E36BC4
:109120000793054408236A4631463046CDE9047763
:109130000397FFF785FF636A0093A36AA26B01930D
:10914000E36A02930492636BE26B0393CDE9052318
:10915000236A0793054408236A4631463046FFF7E1
:109160006FFFE36A0093236B0193636B0293236A9F
:109170000693A36A0793054408236A46314630469E
:10918000CDE904770397FFF72BFF236B0093636B05
:109190000193A36B0293E36B0393636A0693E36A01
:1091A00007932D1A08236A4631463046CDE90477E5
:1091B000FFF716FF636B0093A36B0193E36B0293BE
:1091C000236A0393636A0493A36ACDE90537236B8B
:1091D00007932D1A08236A4631463046FFF700FFF1
:1091E000A36B0093E36BCDE90137636A0393A36A32
:1091F0000493E36ACDE90537636B07932D1A0823BF
:109200006A4631463046FFF7EBFE2D1A0D4C0FD45F
:1092100035B9082231462046FFF75BFD01280FD003
:109220000823224631463046FFF7DAFE2D1AEFE7D3
:109230000823224631463046FFF702FF2D18F7D4A7
:1092400009B0F0BDF8C70F00F0B591B00E461C2272
:109250000021074609A8FEF765F801241C22002119
:1092600001A80894FEF75EF8314608AA11F9045BDC
:1092700000942B461046FFF7E3FE294608A8FFF7A7
:1092800049FD013804B2012C06DC2A4669463846FD
:10929000FFF734FD11B0F0BD694668463246FFF76E
:1092A0007CFE214608A8FFF755FD28B133463A4613
:1092B00069466846FFF761FE013C24B2E3E770B5FA
:1092C000036813F001050646144605D013460A4606
:1092D0000146FFF7B5FE054621463046FFF7ECFC98
:1092E00045B104F18042013A56F8223043F0004380
:1092F00046F8223070BDF0B50F46A1B006461946BB
:10930000384615461C46FFF72FFD20B13046FFF7C3
:109310003AFD21B0F0BD224639466846FFF7EEFC23
:10932000294608A8FFF7EAFC10A82146FFF72BFD05
:10933000012318A81093FFF726FD224608A96846C6
:10934000FFF7C7FC28B9224610A93046FFF7D6FC24
:10935000DFE7009BDA0709D421466846FFF7ACFC3B
:109360002246294610A8FFF7AAFFE6E7089BDB077D
:1093700007D4214608A8FFF79FFC2246294618A8D3
:10938000F1E7002823461CDD08AA69466846FFF776
:1093900027FE21466846FFF78FFC224618A910A831
:1093A000FFF797FC002805DA10A923462A4608464D
:1093B000FFF746FE10A9234618AA0846FFF710FE3D
:1093C000CEE708A96A460846FFF70AFE214608A824
:1093D000FFF772FC224610A918A8FFF77AFC0028B4
:1093E00005DA18A923462A460846FFF729FE18A9D8
:1093F000234610AA0846FFF7F3FDBEE770B59DF9B6
:1094000010401E4623460546FFF7EAFD38B12346C5
:10941000324629462846BDE87040FFF711BE70BDB0
:109420002DE9F0438BB01446129D15F9046B00969C
:109430001F46804689462B460246214602A8FFF772
:10944000DDFF02A9129A0846FFF7A7FD129B02AAA8
:1094500041464046FFF791FD129B02AA2146204655
:10946000FFF78BFD2B464A46394638460096FFF7F4
:10947000C5FF129A394602A8FFF78FFD02A92B46B5
:10948000424608460096FFF7B9FF02A92B4622463E
:1094900008460096FFF7B2FF2B464246214620467B
:1094A0000096FFF7ABFF129B224649464846FFF75E
:1094B00064FD2B4602AA414620460096FFF79EFF18
:1094C000129B224639463846FFF757FD2B464A463F
:1094D000394638460096FFF791FF324602A92046EA
:1094E000FFF70CFC0BB0BDE8F08300002DE9F04F56
:1094F000C34CC44B22689A42ADF5137D064640F03A
:10950000D58163685A79202A40F0D3819B68DFF8BF
:10951000008398476468BC4994F805B0B34528BFF8
:10952000B34605465A460AA8FEF7D6FB6679B74CFD
:109530003246214662A8FEF7CFFB62ABA11998190B
:109540003246FEF7C9FBB5F9023095F9004013F138
:109550001F0948BF03F13E0949F3471909F1FF36D6
:109560002AAA002342F8263052AF92AA02EB8602C2
:1095700047F8263042F8E03C95F90120414672A8B0
:10958000FFF70CFCA30072AA02EB030A95F9012075
:10959000049308EB02015046FFF700FC95F9012007
:1095A00062A93846FFF7FAFB95F9012062AB9918DA
:1095B0005AA8FFF7F3FB21463846FFF7D5FB28B141
:1095C00048F242500DF5137DBDE8F08F5AA8FFF721
:1095D000CBFB03900028F3D105F124034A4639461A
:1095E00018460293FFF775FB0128E9D14A465AA9AC
:1095F0000298FFF76EFB0128E2D1029A4B465AA966
:1096000022A812AFFFF777FE039B47F82630B5F983
:10961000023013F11F0848BF03F13E08DE1D48BFAA
:1096200003F10E06F6105E454FEA681828BF5E4645
:109630004FFA88FB59463846FFF7A5FB32460AA980
:10964000FFF7ACFBB5F90230F6009E4214D9F61ACA
:1096500007EB88080022C6F120004745C0F0C5800E
:109660005A4639460298FFF734FB012804D05B467E
:10967000029A3846FFF7B4FC0DF5027822AE39465F
:1096800040464B463246FFF746FC414638464B467D
:10969000029AFFF7A3FB40464B46324652A9FFF71A
:1096A0003AFC4B464146029A1AA8FFF797FB22461E
:1096B000404672A9FFF722FB049B08EB030B5146BF
:1096C000584605F1440AFFF719FB51463AA8FFF73F
:1096D00015FB049B42A80AEB0301FFF70FFB2B1DB0
:1096E00041463AAA304600940593FFF787FE5B4651
:1096F000424642A93AA80095FFF792FE23462A1D4A
:1097000031463046FFF7F7FD3246594640462B4674
:10971000FFF747FC0023CDE9063A494672AB3846CD
:10972000CDE90838FFF7F6FA494680461AA8FFF750
:10973000F1FA8045B8BF80461FFA88F808F1FF3A71
:109740000FFA8AFA51463846FFF704FB5146071CC8
:109750001AA818BF0127FFF7FDFA002814BF02233B
:1097600000231F430DF1180B0DF1A80A5BF82770B9
:10977000224639465046FFF7C1FA049B0DF1C80B4B
:10978000F9185846FFF7BAFA21463046FFF7FBFAB8
:1097900001233360A8F102080FFA88F8B8F1000F2E
:1097A00038DA2346059A31463046FFF7A4FD2B46AA
:1097B000324659465046FFF7F4FB4A465146029856
:1097C000FFF787FA012804D04B46029A5046FFF76C
:1097D00007FC013C64B252AA23065DD5039B002B13
:1097E00048F2425008BF0020ECE658F8041D21FA68
:1097F00006F31343C8F8003001FA00F22DE700BF6A
:10980000047700207052464D44750020E077002018
:109810000C7700202B463246D5F8A47059465046A6
:10982000B847414612A8FFF795FA4146071C1AA807
:1098300018BF0127FFF78EFA002814BF0223002368
:109840001F4306AB53F827701FB3224639463AA888
:10985000FFF754FA049B42A8F918FFF74FFA2B467A
:10986000324642A93AA8FFF79CFB059B00943AAA0E
:1098700051464AA8FFF7C2FD5B46524642A93AA8A4
:109880000095FFF7CDFD2B464AAA31463046FFF73B
:1098900074FB08F1FF387FE752F824105AF824309F
:1098A0004B40039919430391013C95E748F240501E
:1098B00088E648F2115085E670B59DF910401E46C5
:1098C00023460546FFF7BCFB30B922462946304601
:1098D000FFF7FFF9012807D02346324629462846DC
:1098E000BDE87040FFF77CBB70BD2DE9F041154627
:1098F0008AB0044688461C22002103A8FDF712FD09
:109900002E1D95F9007003232A46414620460293F6
:10991000FFF743FB334602AA214620460097FFF794
:109920006DFD2B46424621462046FFF726FB009759
:10993000334605F1840221462046FFF7BDFF0AB0F9
:10994000BDE8F0812DE9F04793F9006092B004463C
:1099500089461046314615469846FFF705FA002815
:1099600040F09180424649460AA8FFF716FB43465D
:109970000AAA214602A8FFF700FB0AA908464246A8
:10998000FFF70BFB43462A4649464846FFF7F5FAE0
:1099900008F10407424629462846FFF7FEFA3B46EF
:1099A0002A46214620460096FFF786FF3B462A4678
:1099B000294628460096FFF77FFF3B462A46214668
:1099C00028460096FFF71AFD43462A4621462046C0
:1099D000FFF7D3FA3B462246214628460096FFF77A
:1099E0006BFF3B4600962A4621462046FFF764FF60
:1099F0002368DB074AD533463A4621462046FFF71F
:109A00001FFB314682462046FFF756F906F1804398
:109A1000013B54F8230040EACA7044F82300424650
:109A200021462846FFF7B9FA3B4602AA29462846AE
:109A30000096FFF7E3FC3B4602AA2946284600961B
:109A4000FFF7DCFC02A908463B462A460096FFF7D2
:109A5000D5FC434602AA21462046FFF78EFA0AAA01
:109A60003B46104621460096FFF7C8FC3246294681
:109A70002046FFF743F949462846FFF73FF90AA970
:109A80004846FFF73BF912B0BDE8F0873146204663
:109A9000FFF712F9C3E70000024B800143F0010316
:109AA000184700BFB0C80F0007B5AB238DF80730CB
:109AB00001210DF10700044B98473220FFF7ECFF1E
:109AC00003B05DF804FB00BF5358002038B50D46C5
:109AD0000A4B014604462022284698472868431C22
:109AE00009D020F07F4020342044B0F1C14F8CBF1A
:109AF0000020012038BD0020FCE700BFA558002051
:109B00004FF0A043D3F810056FEA504000F0010079
:109B10007047000008B5FFF7F3FF0B4A60B910600B
:109B20000A4B0B4AC3F8002640F6CD4100220948F3
:109B3000BDE80840FEF768BD136801330A2B1360C7
:109B4000EEDDFDF7C9FC00BF5C780020000001409D
:109B50003546526E60770020012359B91F2886BF11
:109B600000F01F00094A4FF0A04203FA00F0C2F8CB
:109B70000C0570471F2886BF00F01F00034A4FF0F6
:109B8000A04203FA00F0C2F8080570470003005035
:109B900010B50446FFF7E0FF1F2C86BF04F01F043A
:109BA000044B4FF0A04304F5E074032243F8242053
:109BB00010BD00BF000300502DE9F34101210E202C
:109BC000FFF7E6FF01210F20FFF7E2FF0121102040
:109BD000FFF7DEFF4FF0A0430C22C3F834276420C8
:109BE000FFF75AFF224C234F6623012101A88DF86D
:109BF0000430A0479923012101A88DF80430A04723
:109C00003220FFF749FFFFF74FFFFFF74DFFFFF748
:109C10004BFFFFF749FF042540F2E9364FF00608F5
:109C2000013E13D10A20FFF737FF0123022101A8CB
:109C3000ADF80430A0470A20FFF72EFF013D11D1F7
:109C40000D48FFF729FF02B0BDE8F081B847830750
:109C5000E8D401A801218DF80480A0470A20FFF76D
:109C60001BFFDDE7B84710F01C0FD5D1E8E700BFB8
:109C700053580020E3580020A086010070B50F4A19
:109C80000F4C07234FF080614FF00065216000BF4B
:109C900000BF00BF00BF40FA03F6F6074CBF1560D7
:109CA000256000BF00BF00BF00BF116000BF00BF44
:109CB00000BF00BF13F1FF33E8D270BD08050050AC
:109CC0000C0500502DE9F84F294D2A4F01210520A0
:109CD000FFF742FF2C684FF00B083B689C421FDDEA
:109CE0000020FFF7CBFF0020FFF7C8FF00211B205B
:109CF000FFF732FF00211A20FFF74AFF002105205D
:109D0000FFF72AFF1C4B1978062081F0010119701A
:109D1000FFF722FFB0232B6000233B60BDE8F88FE4
:109D2000164B4FEA440A012608FB043B9020FFF73C
:109D3000A5FF0AEB0600FFF7A1FF4FF000094FEA6D
:109D4000E90209F007011BF802200A4112F0010F95
:109D50000CBFFF20002009F10109FFF78FFFB9F1C7
:109D6000580FECD1022E01D10134B6E70226DDE70F
:109D7000D07B002034590020955D0020965D0020A6
:109D80000B234B4310B503EBE003094C00F0070233
:109D900001209040E25C1043E054064B1A688A426E
:109DA000C8BF1960044B1A688A42B8BF196010BD59
:109DB000965D0020D07B00203459002073B500252B
:109DC00004460DF107000E468DF80750FDF70EFB17
:109DD000204B214A18781178CBB2204909888B4250
:109DE00038BF0133C0B238BFDDB2A8422AD01578DF
:109DF0001378DBB2994286BF0133DBB200231370C4
:109E00009DF80700FEF7F2F94FF6FF739D421ED052
:109E1000134B1B6803EBC50243F83560ACB1114B23
:109E200011491B88096805FB031504F1180354F850
:109E3000041B45F8041B9C42F9D118239380002091
:109E400002B070BD4FF6FF75DAE79480F7E70420A3
:109E5000F6E700BF5C7700204C7700205A7700209F
:109E600054770020587700205077002070B5254B9C
:109E70004FF0FF324FF00051C3F88020C3F880212B
:109E8000C3F88420C3F884214FF4805388B00B605A
:109E9000EFF30580196841F204031C68002383F383
:109EA000148883F3108883F3118883F31388C0F335
:109EB000080028B981F308889646204708B070BD8D
:109EC000CDE90033CDE90233CDE904324FF08073A0
:109ED0000793A1F1200306946D461C4608AE2A465E
:109EE00003CAB24220606160154604F10804F6D14D
:109EF00083F308884FF0FF339E466FF00603184740
:109F0000DCE700BF00E100E0F0B503881F2B8BB059
:109F1000044600F0D88026D8112B53D006D8012B48
:109F200000F0E080102B3FD00BB0F0BD142B00F000
:109F30005E811A2B31D0132BF6D10222ADF81020FE
:109F400002AA0592AD4A1488002304AA42F605210C
:109F50002046ADF81230FDF713FC85211A46204645
:109F6000FDF71AFCE0E7512B00F0C2800ED8232B3E
:109F700000F0A180502B36D0212BD5D1002304A98D
:109F80008088ADF81030FDF703FCCDE7552B77D076
:109F9000562B00F09D80522BC6D100231A4619463D
:109FA000A088FDF749FBBFE7944B82881A80944A4A
:109FB00012681C460AB10120904792492088FDF79B
:109FC000F5FBB1E78D4B4FF6FF721A808E4B1B6885
:109FD0005C0701D4FDF7F2FB894B1B68002BA3D073
:109FE00002209847A0E7894EC288B3889A429BD145
:109FF000002504A88DF81050FDF7F8F98449854A2A
:10A00000086890420ED9471E0F6010F8013C824D3F
:10A0100005EBC31502F12103DB1B0A79DBB29A427F
:10A0200038BF0B719DF81000FEF7E0F8002D3FF4EB
:10A030007BAF228A04F11201284602F0D1F91822DE
:10A04000002104A8FDF76EF908238DF81030734B3A
:10A050000693734B0596CDE90735238AADF8243076
:10A06000704B1B88172B03D82846FEF7D5F85BE703
:10A070006D4904A8FFF7A2FE00283FF455AFF3E7AF
:10A08000C188822915D8CB1E98070DD0CB1F9BB253
:10A09000013B5A4202F0030203F0030301F1FF31D6
:10A0A00058BF5342C91A89B2544B1888FDF7C2FAF7
:10A0B0003AE78321F8E7002204A98088CDE9042249
:10A0C000FDF764FB30E74D4B00F10801188876E797
:10A0D0008379002B7FF428AF484B13211888FDF7B4
:10A0E00063FB21E7454B00211888FDF79FFA1BE72A
:10A0F0008379002B3FF418AF022B7FF415AF43494F
:10A1000000898A8990420D467FF40EAFA27B012A16
:10A110007FF40AAF0022CDE90422ADF808308DF8B3
:10A12000103001AB01200393344B8DF81600208AC8
:10A13000ADF818001B88608AADF81A0004F114000D
:10A140000790ADF80A20098A02AA1846FDF718FB05
:10A1500060B99DF80420D20708D440F2FD1204A98A
:10A160001846ADF81420FDF769FADDE6002204A9CF
:10A170001846ADF81420FDF761FA014600287FF477
:10A18000D3AE182204A8FDF7CDF8237D234A8DF81D
:10A190001030022B0595069220D0062B0ED0012BF5
:10A1A0000ED12248FDF7F6F9214B1A88214B1A806F
:10A1B000637D0893D4F81630099301E0637D08931A
:10A1C000069B002B3FF4B0AE164B1B88172B7FF677
:10A1D000ABAE154904A8FFF7F1FDA5E6A27D637DAE
:10A1E00043EA0223124A1380124A1380E8E700234D
:10A1F0001A4619468088FDF7CDFA95E62A590020BF
:10A2000068750020D4CB0F008C74002038720020B9
:10A21000846100200C7200208C61002085760F0084
:10A2200051820F005877002071B70F0040CD0F000A
:10A23000007700200277002008B510461A4602F089
:10A24000CFF8002008BD08B510461A4602F0C8F83D
:10A25000002008BD30B5114B1148DA6A5C6A9D6C6C
:10A26000AC2A02BF5B6BED18E41A85B02246294682
:10A2700002F0C4F880B10B4BD3F800340BB1FDF7FA
:10A28000FDF8102200216846FDF74CF8A408684646
:10A2900001950294FDF79EF905B030BD607800206D
:10A2A00000700F0000000140F7B5184D1849064630
:10A2B0004FF4DC72284602F0A1F828B916B9002044
:10A2C00003B0F0BDB047FAE7124C114923680122F0
:10A2D0001F6920460023B8470246A8B95821281D07
:10A2E000FDF73CFF294628604FF4DC720A4802F073
:10A2F00077F823680096DD68074A05494FF4DC7358
:10A300002046A8470028DAD00320D9E7607800204B
:10A3100000F00F0040590020187A00202DE9F04F7E
:10A3200002F6FF7585B02B0B0293284B1B780E1A93
:10A330000746884614464FEA163B0BB9FEF720FA4B
:10A34000BBF1080F28BF4FF0080B4FEA0B33DFF8C3
:10A35000809003930CB9224633E0029B1C489B4536
:10A3600028BF9A46D9F8003038BF039E1B6938BF12
:10A37000DA461D4652464FF00003394628BF2646AE
:10A38000A8470246E8B9D9F800100090CA68F31C43
:10A39000154623F00303424639464846A84702467D
:10A3A00078B9029B0B4AA3EB0A030293136BA41B1D
:10A3B0003744B0441E441663FFF776FF0246002878
:10A3C000C8D0104605B0BDE8F08F00BF945D0020F6
:10A3D000405900206078002008B5164B42F2040274
:10A3E000996C885802F1A34202F5471202F2D75243
:10A3F00090421AD1D3E90C02904218D0B1F5805F97
:10A4000004D10020BDE80840FFF74EBF121A02F643
:10A41000FF7222F47F62014422F00F0200F58050A7
:10A42000FFF77CFF0028ECD008BD0320FCE70020EC
:10A43000FAE700BF60780020034A0023036043600E
:10A4400083601363704700BF607800202DE9F04FF0
:10A45000AB4D2B68DB0791B000F15081A94BAA4AA4
:10A460001860AA4B1A602122013AD2B2FF2A40F0AA
:10A47000408100221A7109A802230492CDE90A2220
:10A480000C920993FDF7A6F80446002840F02D81B0
:10A490009F48FDF7C9F80446002840F02681FDF7E3
:10A4A0004DFF0446002840F0208106210123CDE91C
:10A4B0000900984A0B90ADF82810202009A98DF8C2
:10A4C00024308DF826300492FDF715FC4FF481728C
:10A4D000CDE9094409A9ADF826204020049A8DF859
:10A4E00025300B94FDF707FC8322CDE9094409A927
:10A4F000ADF826202320049A8DF824300B94FDF724
:10A50000FAFB049A0B94184609A9CDE909448DF881
:10A510002430FDF7F0FB4FF4B062099209A9049AC8
:10A52000A120CDE90A44FDF7E6FB049A0B9409A9A2
:10A53000A020CDE90944FDF7DEFB04A8FDF7DDFB13
:10A540000446002840F0D180734A18211370024657
:10A550007248FDF703FE724AD2F89C31984212D13C
:10A56000704C02F5CE7302F5DA7218685968264607
:10A5700003C6083393423446F7D1186830602B681D
:10A5800043F002032B60112309A88DF81030FDF76A
:10A5900063F90446002840F0A8809DF8253009A8FA
:10A5A00001338DF82530FDF759F90446002840F0B5
:10A5B0009C80D5F8009019F0020F15BF59495A49EF
:10A5C0008A69072218BF043192B204A8FDF7E8F89F
:10A5D0000446002840F089805448FDF7E3F804461B
:10A5E000002840F08280524B524D4FF6FF724FF0E0
:10A5F000010A1A8002A94FF659632A4650468DF87F
:10A600000AA0ADF80830FDF7BFF8044600286CD169
:10A61000A91C4948FDF70CF80446002865D10146FD
:10A620001C2209A8FCF77EFE9DF82430ADF80440FA
:10A6300043F004038DF824300223ADF80C30AB78DE
:10A640008DF80E3004F0F80343F003038DF8063064
:10A650008023CDE90644ADF81C302B4601AE4FF007
:10A66000110B03AF04AA09A933F8040B08948DF861
:10A6700005B0CDE90476FDF785F8A0460446A0BBF9
:10A6800001461C2209A8FCF74DFE9DF82430ADF8C8
:10A69000044023F0180343F018038DF82430AB78FE
:10A6A0008DF80E301723CDE90644ADF81C302B464B
:10A6B00008F0E80848F0130804AA09A933F80C0BBD
:10A6C0000894ADF80CA08DF805B08DF80680CDE9A2
:10A6D0000476FDF757F8044638B9FDF76FF80446DD
:10A6E00018B9074A49EA0A031360204611B0BDE8C9
:10A6F000F08F1968481C18600A70B5E60024F4E76A
:10A700008C740020687500200C7200208461002089
:10A7100000700F00B857002020780020A0F10F0033
:10A7200000F00F0060610020E8C70F00D4CB0F00DD
:10A730002A59002038720020D8C70F0030B542686F
:10A74000527802F00F01082987B003460FD1036940
:10A750001C6800250CB907B030BD2146257368463A
:10A76000FDF79AF86846FFF7E9FFA468F2E712F0F0
:10A77000C00120D102F0300010280ED15A691170AA
:10A780005A6818695378946803F00F03072B09D1AE
:10A790000146204600F017F8DDE79006F0D55B692A
:10A7A0001970D8E71279214614B101F019FED2E7E9
:10A7B000FCF7B8FDCFE78029CDD1006900219206D2
:10A7C0000160C8D5EBE77FB50023CDE9023183787E
:10A7D000194490F903300491194403780591CDE9A7
:10A7E00000003BB16846FFF7A9FF6846FDF72EFA67
:10A7F0000028F7D107B05DF804FB00002DE9F04315
:10A8000055686B7813F0C00489B006468C4617462D
:10A8100003D0402C6AD000240AE003F00F025E4906
:10A8200003F03003102B51F8228020D004D8CBB194
:10A83000204609B0BDE8F083202B1ED0302BF7D185
:10A840007B6929781970072A0AD17B6838691A79D7
:10A850002146FCF767FD7B6839699868FFF7B3FF0D
:10A860003A6940E03A692946C0470446E0E77B6917
:10A8700001221A703A697968F6E7BCF1020FD7F83D
:10A88000149024D1042A22D804A9FDF71CF9044607
:10A890000028C0D0069B2BB1796899F800304A791E
:10A8A0009A4205D8059B7360069B002BC0D0B2E787
:10A8B00008793A6900FB032204A8C04728B199F837
:10A8C0000030013389F80030E4E70446EAE799F8FC
:10A8D00000306A799A429ED93A692979581C89F8D8
:10A8E000000001FB032279683046BDE7D2F81080F2
:10A8F000454655F8043B13B9FDF782F9B5E702293F
:10A9000014D104A9FDF7DFF8002884D0D8F800306E
:10A9100079682A4604A89847044600283FF47BAF8C
:10A92000069B002BF2D1059B736081E701292BD098
:10A930004CB24CB105297FF46EAF04220DEB02013D
:10A94000FDF7DAF8042424E00DF1040901340B2C9E
:10A950003FF461AF012249463046FDF7CDF80028AB
:10A960003FF459AF19F9013B002BEFDB0B4B04937C
:10A9700001ABCDE9053400230793D8F8003079689E
:10A980002A4604A8984770E7082201A9FDF7B4F801
:10A9900008240028EAD13EE7B4C70F0003750F0072
:10A9A0002DE9F04F8B788FB00025CDE904521A4481
:10A9B00091F903300692CDE90055CDE902111A4410
:10A9C000044607924FF00108A3682BBBDDE903346E
:10A9D00002A85D78FDF73AF90028F7D115F0300F9D
:10A9E00003D1039B1B7803B10134002C65D06309AC
:10A9F000002293425BD10EAA02EB830304F01F04F2
:10AA00004FF0FF30C4F1200420FA04F453F8380C5E
:10AA1000231A5842584108E008A92046FDF720F8BB
:10AA200030B9A368002BD1D000200FB0BDE8F08F63
:10AA3000089EDDF80CA0002EC8D0F70806F0070627
:10AA4000039B1A78974204D15B7803F00F02082A1F
:10AA500058D102A8FDF7FAF8DDF80C90CA45EFD1FD
:10AA6000BD420DD8039A537803F00F03082B29D069
:10AA700002A8FDF7EBF8039B9945F3D14FF0FF35A2
:10AA800031462046FDF7BCF800289DD1CCE79B68F5
:10AA90001B789F4233D1494608A8FCF7FDFE89F890
:10AAA0000C8008AA31462046FFF7A8FE25E05DF895
:10AAB00022100131B8D101329BE70120B5E79A4558
:10AAC000DED081E71578BD42DAD8069BD4F808A01D
:10AAD000D3F80090A368B9F1000FF0D09A457FF445
:10AAE00073AFD9F80030D3F800B0BBF1000FCED06F
:10AAF00033463A4649462046D847002894D0D9F8EC
:10AB00000890E7E713F0300F0FD1049B3F2B0CD8D0
:10AB10005A090EA901EB820203F01F0352F8381CF8
:10AB200008FA03F30B4342F8383CD4F80C90B9F11F
:10AB3000000F04D002AB324639462046C84702AA6D
:10AB400031462046FFF75AFE9EE7000070B50E4BD7
:10AB50000E4C9A6B0E4E0F4D0F4921605C33C4E9C9
:10AB600001320E4B0E4AE360002313600D4A31465A
:10AB700028461360FFF727FE324629462046BDE8E7
:10AB80007040FFF70DBF00BF60780020F076002016
:10AB900074750020A0C90F0003750F0021750F0008
:10ABA000407500203C7500202DE9F7437F49D1E92D
:10ABB0000E329A420E4640F0F2807D4B1A7899464A
:10ABC00052B1FCF7D7FC7B4B4A6A18607A4B1A608B
:10ABD000012003B0BDE8F083FFF7B8FF002834D0B0
:10ABE000764B93F89C5019460DB91B786BB3724B9A
:10ABF000704F00223A601A6098464DB1704D91F83E
:10AC00003831A5F199042022019225B91320E0E7FB
:10AC10002B466C4CF7E70BBB6B496C486C4A0968D8
:10AC2000006801ABFCF7A6FBB0B92B78402B13D121
:10AC3000684A6B1C413553F8041B42F8041BAB42B5
:10AC4000F9D10198FEF752FC08B10520C1E794F84C
:10AC500058302BB90F20BCE70A20BAE71620B8E716
:10AC600094F859100329F5D894F87130032B40F06B
:10AC70009880237B002BEDD02369342B40F0938008
:10AC800043F20402237D1068534A90423FD113B32C
:10AC9000A26902B304F11400002243F20C0CD5B2F5
:10ACA0009D4201D3122094E7BCF8005050F804EF05
:10ACB000AE4502F10102F2D12379002B2DD00129FA
:10ACC000A36894BFB268F2689A428CBF0023012344
:10ACD0002BBB10207DE799B9012BEDD9A269002A81
:10ACE000EAD143F20C0204F1140015880A4650F828
:10ACF00004CFAC45E0D00132D2B29A42F7D1D1E7CD
:10AD000011F1FF3318BF0123002BD5D1CAE713B1CE
:10AD1000A369002BC6D12379F6E701299AD1012333
:10AD200089F8003011BB94F86830002B33D0E56E01
:10AD3000002D8FD0C8F80050FCF71CFC2749081ADA
:10AD4000854207D9FCF700FC081A854221D824481F
:10AD5000FFF772FB002301212248C6E90431FFF707
:10AD60006BFB7562FCF706FC386031E711F00105FA
:10AD700003D094F85A5005B1E56D8B07D8D594F8F7
:10AD80006030002BD4D0184B626EC3F57E239A42FC
:10AD900003D904201DE70D46EFE71544C8E7082056
:10ADA00017E7142015E7112013E700BF6078002093
:10ADB0002C780020747400207074002074750020BA
:10ADC000AD760020787500203C750020407500208D
:10ADD00044750020E0770020DBE5B15100400F0012
:10ADE000787800208478002000700F00F0B585B0DE
:10ADF0000E468C68694607461546FCF764FE88B126
:10AE0000B06878B1737803F03003202B03D1294662
:10AE10002046FFF7D8FC2A4621466846FFF7C0FDCA
:10AE2000019B7B6005B0F0BD2DE9F74F184D8346BF
:10AE30000E46284601A991469A46FDF755F920B3DA
:10AE4000BDF80470D5F8008018EB07041DD0182257
:10AE50000021201DFCF766FA0123237148F807B092
:10AE6000BDF80420BDF80630C4F808A0360B9A429D
:10AE7000E660C4F8149002D12846FDF765F9FDF7A5
:10AE800079FB002003B0BDE8F08F0420FAE700BF93
:10AE9000607400202DE9F74F174D83468A462846F7
:10AEA00001A991469846FDF71FF910B3BDF804605B
:10AEB0002F68BC191DD018220021201DFCF732FA82
:10AEC0000023237147F806B00C9BA360BDF8042053
:10AED000BDF80630C4F814809A42C4E9039A02D13E
:10AEE0002846FDF731F9FDF745FB002003B0BDE82A
:10AEF000F08F0420FAE700BF6074002007B5142229
:10AF000000211148FCF70EFA104B53E8021FD888B5
:10AF1000B1EB314F4FF0000217BF89B240EA004059
:10AF200041EA004004E05968B1EB314F08BF01220B
:10AF300043E802010029E8D18DF807209DF8073089
:10AF4000002003B05DF804FB7874002060740020DA
:10AF5000F8B513681F2B04460D46164663D910F149
:10AF6000080763D0002961D0836CC118372B4FF0DC
:10AF7000800003F10102087245D80933234404F12B
:10AF8000400200219A423BD1D4E91423A06C08214D
:10AF9000E1FB0023104612BA62641A0A194684F8CB
:10AFA000433084F842201A0C1B0EC4E9140184F8C3
:10AFB0004030394684F841203846FDF7AFFD691E20
:10AFC0000023626FDA4001F8012F226FDA400A7124
:10AFD000E26EDA400A72A26EDA400A73626EDA40FA
:10AFE0000A74226EDA400A75E26DDA400A76A26DC2
:10AFF000DA400833202B0A77E3D133600020F8BD14
:10B0000003F8011BBEE7E31D00213F2A08D939469A
:10B010003846FDF783FD38220021FCF783F9B3E7BA
:10B0200001329954F1E748F21450E8E70E20E6E7C0
:10B0300008B54FF4727200210848FCF773F9084A0A
:10B0400002231360074A1360074B00221A60074B64
:10B05000AF221A60BDE80840FEF734BE965D0020BE
:10B060002059002024590020D07B00203459002092
:10B070002DE9F04FDFF81881DFF8189185B0471EF1
:10B0800017F8016F56B93D4B1A683D4B1B689A4241
:10B0900071DC05B0BDE8F04FFEF714BE2E2ED8F8D7
:10B0A0000040D9F8005059D02B2E59D0602E01D92C
:10B0B000203EF6B2303E5E2E32D8052396FBF3F3E7
:10B0C00003EB8303F31A03EB4302F61A2D4B0092B2
:10B0D00003EB46066B1D0193631C0293A31CAA4657
:10B0E000039336F8022B009B42FA03FB1BF0040F7C
:10B0F00003D051462046FEF743FE1BF0020F03D05B
:10B1000051460298FEF73CFE1BF0010F03D051465A
:10B110000398FEF735FE019B0AF1010A9A45E0D13A
:10B120003B780A2B1ED1AB1D532BC9F80030A7DD8D
:10B1300015494FF45C72A1F1580001F051F9582201
:10B1400000211248FCF7EEF80C4B00221A600C4B61
:10B15000023D5722C9F800501A6091E75C26A9E722
:10B160004026A7E70D2B0BBF02230434C8F800309C
:10B17000C8F8004084E705B0BDE8F08FD07B002020
:10B18000345900205AC70F00EE5D002006610020F0
:10B19000205900202459002008B5FFF769FF024814
:10B1A000BDE80840FFF764BFC4CB0F0008B507280F
:10B1B0001CD8DFE800F0041517191B131B130C48EB
:10B1C0000C4BC3600022012340F6CD418360FDF7A4
:10B1D0001BFA0948BDE80840FFF7DEBF0748F9E75A
:10B1E0000748F7E70748F5E70748F3E708BD00BF5A
:10B1F00060770020159B0F0079C90F0087C90F00E9
:10B2000090C90F008DC90F0098C90F001FB547F6F0
:10B2100030020023CDE901230DF10604CDF80B30F7
:10B220001C2220FA02F101F00F01CBB20929D4BF90
:10B2300030333733043A04F8013B131DF1D10023B6
:10B2400001A88DF80E30FFF713FF04B010BD000009
:10B250002DE9F04FADF5137D01460446102206A8F6
:10B26000AC4DA847069B013347D0079B002B44D029
:10B27000A948FFF791FF0698FFF7C8FFA748FFF717
:10B280008BFF0798FFF7C2FFA548FFF785FF0898D7
:10B29000FFF7BCFFA348FFF77FFF0998FFF7B6FF52
:10B2A000A148FFF779FF069BB3F5772F25D09F487C
:10B2B000FFF772FF04F110060023079F0393B146C6
:10B2C000002F1EDC089A039B9A4234D09848FFF75F
:10B2D00063FF9848FFF760FF0398FFF797FF9648D2
:10B2E000FFF75AFF9448FFF757FF0023934A94490A
:10B2F00094485293529B934217DD0DF5137DBDE8A0
:10B30000F08FB7F5807FB846A8BF4FF480784946E4
:10B31000424612A8A84703AA414612A8FCF71EFFFE
:10B32000C1440390A7EB0807CAE7C1F80006529B87
:10B3300001335293DEE78448FFF72EFF8348FFF77F
:10B340002BFFDDE906A9B34652ABB9F1000F01D1DD
:10B3500001272FE0B9F5807FC84628BF4FF48078D9
:10B36000184642465946A84752AB184600271AF8D5
:10B37000072010F801CB62450AEB070167D074483B
:10B38000CDE90021FFF774FE01990846FFF73EFF63
:10B390006948FFF701FF52ABD85DFFF737FF6D48F3
:10B3A000FFF766FE009A1046FFF730FF6248FFF78E
:10B3B000F3FE00276848DFF8B881FFF7EDFE0623AB
:10B3C00001210AA88DF828301C3CC04700230493B3
:10B3D000049BB3F57A7F42DB02238DF828301C22D0
:10B3E000230C002164BA0BA88DF82930ADF82A404F
:10B3F000FBF798FF20210AA8C047584CA047C30775
:10B40000FCD4002F40F081805548FFF7C5FE554819
:10B41000FFF7C2FEDDE9068472B6534BDFF820C1A8
:10B42000DFF820E1CDF80080A146224604EB0801B8
:10B430000220002A16DCDFF830A14746B9F1000FE0
:10B440002CDC4444009BA34259D1FCF745F801375A
:10B45000B8458CD1C344C244A9EB080975E7049BE5
:10B460000133B4E7A1EB020AC3F80405D3F800B432
:10B47000BBF1000FFAD0C3F808A5D3F800A4BAF1C5
:10B48000000FFAD0C3F80475D3F800A4BAF1000F86
:10B49000FAD0A2F58052CCF800E6CAE7B9F5807F71
:10B4A000CB46A8BF4FF4807B5A46314652A8A847E6
:10B4B0003B4652AA012000215F44CAF80405DAF88D
:10B4C00000C4BCF1000FFAD052F804CBC3F800C09E
:10B4D000DAF800C4BCF1000FFAD0CAF80415DAF8A3
:10B4E00000C4BCF1000FFAD004339F42E5D1144BE5
:10B4F000144AC3F800265E44A9EB0B099EE7009AA4
:10B5000012F8013B009205939CE71848FFF744FEB0
:10B51000F3E600BFA5580020F4C90F0001CA0F00D0
:10B5200007CA0F000DCA0F0012CA0F001BCA0F0076
:10B5300027CA0F0034CA0F00C6CB0F003F4B4C0088
:10B54000000001403546526E41CA0F0048CA0F0044
:10B5500053CA0F005CCA0F0060CA0F00E3580020F6
:10B560006FCA0F0083CA0F0000E001408FCA0F00AE
:10B57000535800202DE9F0436D4D6E4C89B00746BD
:10B580000026641B1423B4FBF3F4A6422AD118222C
:10B59000002102A8FBF7C6FE04238DF80830664C94
:10B5A000664BD3F80080236D434540F0BC80644B6C
:10B5B0001E68644B93F89C2003F1A4050833002A0D
:10B5C00008BF1D464FF0200901AB5F4ACDF804903B
:10B5D00041463046FBF7CEFEC8B117255B48FEF763
:10B5E0002BFF28E02B6813B901361435CDE7DB6952
:10B5F000284698470028F7D0554B1B88172B03D9AE
:10B6000054493846FEF7DAFB09B0BDE8F0834A46F4
:10B6100005F16F014C4800F0F1FE0028DDD195F8EE
:10B6200055305BBB012223626B68E262A360A36CAE
:10B63000C4E909830125202200214748FBF772FE57
:10B64000F422FF214548FBF76DFE0A2D4FF0000361
:10B65000236388BF424BA66484BF0B3D1D70414CE1
:10B6600088BF0B258DF80950D7E9011302A8984728
:10B67000002CC9D02046FEF717FEC5E703F00201F3
:10B68000DB074BD542F20403F05803F1A34303F563
:10B69000471303F2D753984243D1AB6D03F5FF52E2
:10B6A00003F6FF731F32C3F30B03D31A42F20802EF
:10B6B000B2589A4235D343F204031B6883421BD12C
:10B6C0004FF440531B78142B89BF43F2140300221C
:10B6D0001A68254B88BFB2FBF3F206F500531B78BE
:10B6E000142B89BF42F214030023F3581E4888BF6D
:10B6F000B3FBF0F39A420CD099B11C48FEF79CFEC4
:10B70000AC23E362AB6D6363002990D06B68E360A8
:10B710008DE7002914BFAC23A523F2E7AA23E36237
:10B72000F2E705255AE701238DF8093000249BE74D
:10B730004059002054590020607800207074002087
:10B7400074740020747500209574002084780020A3
:10B750005877002075B50F0098780020BC7800203D
:10B7600064750020C9750F0040420F0078780020F2
:10B77000F0B5044689B0162200210DF10A00FBF74E
:10B78000D1FD23788DF8083001228DF809200C2B8B
:10B7900000F2B381DFE813F00D0079000F007900AB
:10B7A0007900B1017900700079006E001C002F0053
:10B7B00074008DF80C20D4E9011302A898479DF875
:10B7C0000930012B00F08E81A64B05201B6888E113
:10B7D0004FF08053D3F800210392D3F80421049250
:10B7E000D3F80C2192020692D3F81021920205920E
:10B7F0001B690793DFE743F204039B491D680A6A4C
:10B800009A48854214BF01230223012A227C08BFE3
:10B81000013352B902238DF80C30CB680493944B5A
:10B820000593C3F57E230693C5E7012A12D185420D
:10B8300010D14FF440531B78142B8ABF43F21403EA
:10B8400000231B6804934FF48053059343F20803CD
:10B850001B68E8E79A4209D201238DF80C308B6807
:10B860000493FBF771FE05908B69DCE7FF238DF8ED
:10B870000C30A0E7237CFAE7238AADF80C309AE776
:10B88000784B07201B68984795E7062B794A01D02B
:10B89000012B01D1216911701178012904D00229ED
:10B8A00079D000231370C0E0013B072B83D801A29D
:10B8B00052F823F0D5B80F00B7B70F008BB90F00BF
:10B8C00059B90F00B7B70F0085B90F00B7B70F0010
:10B8D00009B90F00634B03201B6898476669002E67
:10B8E00077D0B6F5807F00F283805F4D624B0021F8
:10B8F0001C2205F13C0019702963FBF713FDAE63B0
:10B9000001238DF8093056E7574DA68AE86BAB6BDB
:10B9100032189A421ED827695C303246394628448C
:10B9200000F05EFDEB6B05F14002334431463846D2
:10B93000EB63FCF713FC012328648DF80930EB6BF3
:10B9400003932B6C0493E368002B3FF434AF20691E
:10B95000984730E70323F0E7FFF726F90A2804D9D0
:10B96000464B0B3818700B23CBE701288DF80900E4
:10B970007FF421AF0020FEF797FC00283FF41BAFB7
:10B980000A23BEE74FF480730593374BDA6B1B6CC9
:10B99000039204930FE7013B072B3FF60CAF01A284
:10B9A00052F823F0C5B90F00B7B70F00B1BA0F00B6
:10B9B000BDBA0F00B7B70F00E9BA0F00B7B70F0055
:10B9C0002FBA0F002C4B1B780BB9082399E762693B
:10B9D0000AB9032395E7C2F30B0333B1224B28497D
:10B9E0005B6D096813448B42F3D1B2F5805F01D9D6
:10B9F000042386E71C4B2248596D00685518854280
:10BA0000E3D85A64DA6C196519639A641D481E4BB1
:10BA100062691E68036802F6FF721D69120B00233B
:10BA20003144A84700283FF4C6AE052369E7124B0E
:10BA30001B78002BC9D00C4DA38AD5E91421521ACA
:10BA4000696C1A448A42C4D80F4A0E481768296B99
:10BA50000268E6680096D66822693944B047A8B102
:10BA6000E36874E76C75002060780020DBE5B15175
:10BA700000700F001C5900202C78002064750020F5
:10BA8000707400204059002074740020A28A2B6B2F
:10BA900013442B63A68A2B6D1E442E65A18A206950
:10BAA00005F14802FCF75AFBA864CDE9036082E681
:10BAB000134B9A6C1B6D049203937CE6104BD3E9F5
:10BAC0001402596C821A8A427FF47FAF9A6C5865CF
:10BAD000002120465964DA64FFF74CFD094B1B68CE
:10BAE0000420984709B0F0BD054B9A6C1B6D039379
:10BAF0004FF48053049205935DE6022301E700BFF3
:10BB0000607800206C750020044B002282B01A601F
:10BB10001B680193019B02B0704700BF0001014008
:10BB20001EF0040F0CBFEFF30880EFF3098000F064
:10BB300001B800BF70B5144B144A0C21D21AB2FBE5
:10BB4000F1F2816911F8025C044635B900690021FF
:10BB5000914205D1012323600EE04FF0FF30F6E75C
:10BB60001E68AE420CD1461C07D19D68D4E9000185
:10BB7000D4E90223A847206070BD5E688642F4D0F5
:10BB800001310C33E4E700BF5CCD0F0068CD0F003E
:10BB900007B50A4B00930A4A0A4B934208BF002399
:10BBA0000193019B13B903B05DF804FBD3E90020B6
:10BBB00090476846FCF7F2F8F3E700BF24CD0F008A
:10BBC00088CD0F0078CD0F0008B54FF080430022DC
:10BBD000C3F80C21C3F81021C3F838254FF0805268
:10BBE00003F54043D2F80414C3F82015D2F8081422
:10BBF000C3F82415D2F80C14C3F82815D2F8101481
:10BC0000C3F82C15D2F81414C3F83015D2F8181450
:10BC1000C3F83415D2F81C14C3F84015D2F8201418
:10BC2000C3F84415D2F82414C3F84815D2F82814E0
:10BC3000C3F84C15D2F82C14C3F85015D2F83014B0
:10BC4000C3F85415D2F83414C3F86015D2F8381478
:10BC5000C3F86415D2F83C14C3F86815D2F8401440
:10BC6000C3F86C15D2F84424C3F87025FCF786F8A5
:10BC700010B12E4B2E4A1A60FCF780F818B12D4BEC
:10BC8000FB22C3F81825FCF779F848B12A492B4B59
:10BC90000A681B6822F00F0203F00F0313430B60C6
:10BCA000FCF76CF818B1264B4FF400721A604FF095
:10BCB0008043D3F80024D20744BF6FF00102C3F8D9
:10BCC0000024204AD2F8883043F47003C2F8883048
:10BCD000BFF34F8FBFF36F8F4FF01023D3F80C32A9
:10BCE000DB071ED5184B0122C3F80425D3F8002426
:10BCF000002AFBD04FF01022D2F80C3223F00103BF
:10BD0000C2F80C32104B1A46D3F800140029FBD0AD
:10BD10000021C3F80415D2F80034002BFBD0FBF748
:10BD2000DBFB0A4B0A4A1A6008BD00BF8C56004074
:10BD30004881030000F00040E40E0040580200106B
:10BD40004096024000ED00E000E00140185900205C
:10BD50000090D003024B034A1B681068184700BFCD
:10BD6000B8740020307200202DE9F04F4FF0A0434E
:10BD70000C22C3F844278BB000211320FDF708FFE5
:10BD80004FF08043D3F8005415F00B0F45D115F058
:10BD90000F0407D14FF47A764FF47A70FDF77CFEEA
:10BDA000013EF9D1FDF7ACFEB8BBB4BB214608207B
:10BDB000FDF7EEFE0720FDF7EBFEFDF7FDFEB923D4
:10BDC00001218DF8083002A8A44B98470220FDF706
:10BDD00063FE01211320FDF7DBFEFDF791FE014616
:10BDE0000028FAD11320FDF7B7FE4FF0A0439C4A7C
:10BDF000C3F84427D3F8442722F44032C3F8442739
:10BE0000D3F8442742F44032C3F844274FF080432C
:10BE10000122DA67C3F80025FEE700210520FDF7BF
:10BE2000B7FE01211A20FDF7B3FE01211B20FDF70B
:10BE3000AFFE01210720FDF7ABFE01210620FDF733
:10BE4000A7FE01210820FDF7A3FE864B8648874CFC
:10BE500043F001039847FFF7EBF8FFF7E9F8E9072C
:10BE600002D52046FFF798F96D106278631C002A0E
:10BE700072D15B780234002BF1D14FF080434FF048
:10BE8000FF32C3F800247A48FFF786F9FDF738FE41
:10BE9000044668B97748FFF77FF9FDF78DFE02A9E0
:10BEA0002046FDF713FE002858D17348FFF774F9B8
:10BEB0007248FDF7F1FD724B724A1A60724A734B79
:10BEC000136000211046FCF7E1F8064600920028B6
:10BED00040F0BE806E4C6F494FF4DC72204600F09B
:10BEE0007FFA25686A1C00F0A58032465821201D83
:10BEF000FCF734F9854240F09D80E36AA52B00F001
:10BF0000948100F28980012B00F0D480FDF7F8FDC8
:10BF1000236A0546002B40F08F815F48FFF73CF90C
:10BF2000002D00F0B7815D485D4EFFF7A1F84FF49A
:10BF30002065FDF7E5FD002800F0A281002D00F04E
:10BF40007E8140F2E730FDF7A7FD6B0602D1304657
:10BF5000FFF78EF8013DECE71C4686E74CF25235C0
:10BF6000A046504E504F53E09DF80C302E2B2AD156
:10BF70009DF80D30662B26D19DF80E30692B22D10D
:10BF80009DF80F30722B1ED19DF810306D2B1AD1F9
:10BF90009DF81130772B16D19DF81230612B12D1FC
:10BFA0009DF81330722B0ED19DF81430652B0AD1F9
:10BFB0009DF815303BB93D48FFF7EEF808F1200039
:10BFC000FFF746F974E7029C24F07F44233444448D
:10BFD00024F00309C145FFF468AF09F12003B3F170
:10BFE000C14F3FF662AF02A94846FDF76FFD70B939
:10BFF000344004F580593C4414F1C14F7FF655AFED
:10C0000002A94846FDF762FD00283FF44EAFC8463E
:10C01000013DA9D1264849E7AA2B00F00A81AC2BA3
:10C020007FF474AFFEF7D8F9002840F00081FEF7E6
:10C0300011F9FCE04FF4DC7200211548FBF772F9AE
:10C04000012300206360FEF72FF900283FF455AF6D
:10C05000FDF70CFF00200BB0BDE8F08F5358002017
:10C060000C000300B0C80F0000C4090038C70F005F
:10C07000DCCB0F00E5CB0F00F3CB0F0020A10700B6
:10C0800028780020ADB10F004059002080CC0F006F
:10C090006078002000F00F001BCC0F0029CC0F00AF
:10C0A00066CC0F0000F0FFFF0010809F0CCC0F004B
:10C0B000FDCB0F00A16C656AFBF746FA814240F0A8
:10C0C0003981FBF741FA00222946FCF747F8A36AB9
:10C0D000984202BF0123C4E90703A56100259A48DD
:10C0E000FEF7AAF9994B9A4800221A70FEF7DCF87D
:10C0F00001460028ACD1002D00F0CF80236A012B2F
:10C1000040F0CB80E56945B1FBF71EFA0A46A1690C
:10C11000FCF724F8854240F0C08042F210768D4B47
:10C120001B780BB9FCF72CFB8B4B8C4FDFF8AC82E8
:10C130003B608B488B4D8C4903F58473C8F8003005
:10C14000002303702B7018230B80884B20221A8049
:10C150004FF080429A46D2F81CC501901CF0B10FF6
:10C1600018BFD2F81C3582481CBF03F04E03C2F83A
:10C170001C3589467F4A3146FCF75EFA7E4B7F4A82
:10C180001A600020FBF76CFB7D4E7E4AB61AF6085B
:10C190004FF0000B5E457C4940F08180009A7B4B5C
:10C1A0007B4813600021FBF7ABFE00287FF450AF03
:10C1B000A36B002B7ED10023764E774A3370774BEA
:10C1C0009B1ADC08764B012119704FF0000B5C457F
:10C1D0007AD102221A70734C734900232360734B87
:10C1E0006360202204F10800FBF776FD20227049ED
:10C1F00004F12800FBF770FD6E4B23603378002BB1
:10C200006CD16D4B604A1A606C4B6D4C00221A70F9
:10C21000D4F800340BB1FBF731F9019B2A781B7875
:10C220009A4260D1FBF755F9F2E7FEF7D5F8012500
:10C2300055E7FEF70FF851E700287FF474AE614828
:10C24000FEF7AAFF6048FDF727FC5D4B01214FF484
:10C250002032C3F80C15C3F80425D3F808250A4387
:10C26000C3F80825594A1960C3F80026D4F85C3190
:10C27000D4F89C211340013351D1FDF7F7FDE7E6D7
:10C28000002DDCD0FEF7D4FE5148FEF785FF514863
:10C29000FEF782FF47F2305641E7FBF71DF952F8EF
:10C2A0003B300846984700287FF4D2AE0BF1010BD3
:10C2B000344A6FE7FEF74AFC00283FF47CAF636A1C
:10C2C000003318BF012377E752F83B108847002856
:10C2D00081D10BF1010B324B2F4A78E7FEF764FC5A
:10C2E00001288ED0B4E62B783A68B9F80060D8F807
:10C2F0000000DBB219B202EBC10C03FB060052F8DE
:10C300003120BCF8041090472B78BAF80020DBB23B
:10C310009A4286BF0133DBB200232B707DE74FF4D6
:10C320007F20FBF713FD57222B494FF47F20FBF7AB
:10C33000EBFCA2E7236BEA1A19441844FDF7EEFF61
:10C3400000287FF4CBAEBCE68478002094740020F3
:10C35000C1740F00945D00207459002054770020B0
:10C360004C7700205C770020587700205A77002017
:10C370004C720020FD740F0024780020E9870F0024
:10C3800048CD0F0040CD0F0061780F00A0CC0F000A
:10C39000405900202C78002040CD0F0040CD0F00E8
:10C3A0002178002004770020C0CC0F00A0CA0F0025
:10C3B000E0CC0F007052464D6C7500206475002073
:10C3C0000000014072CC0F00A08601003546526E7D
:10C3D000DCCB0F0068CC0F00607800205077002085
:10C3E0000A44914200F1FF3300D1704710B511F8B3
:10C3F000014B03F8014F9142F9D110BD30B501391D
:10C400000024A24201D1002005E0035D01340D5D4E
:10C41000AB42F6D0581B30BD53B94AB9002908BF0A
:10C4200000281CBF4FF0FF314FF0FF3000F074B90F
:10C43000ADF1080C6DE904CE00F006F8DDF804E07B
:10C44000DDE9022304B070472DE9F047089E044659
:10C450008846002B40F085808A42154648D9B2FABA
:10C4600082F24AB1C2F1200701FA02F320FA07F77B
:10C47000954047EA030894404FEA154E230CB8FB59
:10C48000FEF71FFA85FC0EFB178843EA084307FBFB
:10C490000CF1994209D9EB1807F1FF3080F0E380E5
:10C4A000994240F2E080023F2B445B1AA4B2B3FBF6
:10C4B000FEF00EFB103344EA034400FB0CFCA445E1
:10C4C00009D92C1900F1FF3380F0CB80A44540F24C
:10C4D000C88002382C4440EA0740A4EB0C04002733
:10C4E0001EB1D4400023C6E900433946BDE8F087B9
:10C4F000002A53D0B2FA82F2002A40F0B680491BDB
:10C500004FEA154E1FFA85F80127B1FBFEFC230CFC
:10C510000EFB1C1143EA014308FB0CF1994207D9B9
:10C52000EB180CF1FF3002D2994200F2EC80844605
:10C53000591AA3B2B1FBFEF00EFB101443EA0444F7
:10C5400008FB00F8A04507D92C1900F1FF3302D2EF
:10C55000A04500F2DC801846A4EB080440EA0C4039
:10C56000BEE78B4208D9002E78D00027C6E900012B
:10C5700038463946BDE8F087B3FA83F77FB98B4276
:10C5800002D3824200F2BD80841A61EB03030120D2
:10C590009846002EA9D0C6E90048A6E7FFDEC7F1FD
:10C5A0002005BB4022FA05FC4CEA030C01FA07F413
:10C5B00020FA05F821FA05F34FEA1C4E48EA040474
:10C5C000B3FBFEF9210C0EFB19331FFA8CF841EA7C
:10C5D000034309FB08FA9A4502FA07F200FA07F149
:10C5E0000BD91CEB030309F1FF3080F088809A45DA
:10C5F00040F28580A9F102096344A3EB0A03A4B2C7
:10C60000B3FBFEF00EFB103344EA034400FB08F8D2
:10C61000A04508D91CEB040400F1FF336BD2A04500
:10C6200069D90238644440EA0940A4EB0804A0FB3D
:10C6300002894C45C6464B4654D351D0002E69D092
:10C64000B1EB0E0264EB030404FA05F522FA07F3DA
:10C65000FC401D43C6E90054002746E737463046F4
:10C6600043E7184637E707461FE7C2F1200320FAE1
:10C6700003F7954001FA02F021FA03F34FEA154E51
:10C680003843010CB3FBFEF71FFA85F80EFB173396
:10C6900041EA034107FB08F38B4204FA02F407D98D
:10C6A000691807F1FF3C28D28B4226D9023F294462
:10C6B000CB1A81B2B3FBFEF00EFB103341EA03410B
:10C6C00000FB08F38B4207D9691800F1FF3C10D238
:10C6D0008B420ED902382944C91A40EA074714E7A9
:10C6E0004145ABD2B8EB020E69EB0C0201381346A0
:10C6F000A4E76046F0E7184695E76746D8E7814625
:10C700007BE7384645E7ACF1020C2B4410E70238D2
:10C710002C4421E73746E8E6704700BFF8B500BF74
:10C72000F8BC08BC9E467047F8B500BFF8BC08BC12
:10C730009E467047B857002050494E005741544319
:10C7400048444F47005357205245534554004C4FDF
:10C75000434B5550004F46460000D75D7552957CBF
:10C760001513FF1DFF7F645ABF7EA91ABF7E40408C
:10C77000922E0011922E6040823C554BF94D504B49
:10C78000423DFE572559F57B255B3E577F594A7937
:10C790008A794A59775F9E656D5BAD6B2D5B155746
:10C7A0007B5B545B527B5175D655ED076D0492044B
:10C7B0001505D527077A0F00AB790F0039790F00DF
:10C7C000E97B0F00CF7B0F00917B0F00517B0F00A7
:10C7D000EDAD0F000000000050EADA308883B89F0A
:10C7E000604F15F30000C98E44667554617267008E
:10C7F0000010020008200001FFFFFFFFFFFFFFFF06
:10C80000FFFFFFFF0000000000000000000000002C
:10C8100001000000FFFFFFFF512563FCC2CAB9F30E
:10C82000849E17A7ADFAE6BCFFFFFFFFFFFFFFFFE7
:10C8300000000000FFFFFFFF96C298D84539A1F421
:10C84000A033EB2D817D0377F240A463E5E6BCF8CD
:10C8500047422CE1F2D1176BF551BF376840B6CB98
:10C86000CE5E316B5733CE2B169E0F7C4AEBE78E94
:10C870009B7F1AFEE242E34F4B60D2273E3CCE3B09
:10C88000F6B053CCB0061D65BC86987655BDEBB3AB
:10C89000E7933AAAD835C65A45990F0049920F0036
:10C8A000EB980F009D900F000000000000000000BA
:10C8B0000338FDD870470000011101FF010000009E
:10C8C00000000000021702FE9400000000C90F00E3
:10C8D0000000000000000000000000000101000056
:10C8E000010000000000000002050000210000001F
:10C8F0000000000000000000000000000000000038
:10C90000011104FC0400000000000000021104FCFE
:10C910000400000000000000032104FC04100000DB
:10C9200000000000041101FF0100000000000000F1
:10C93000051102FE0400000000000000061104FCC6
:10C940000400000000000000071104FC04000000C7
:10C9500000000000081701FF22000000DCC80F00E3
:10C96000091001FF0100000078C90F00000000005D
:10C9700000000000000000000042544E31203D2025
:10C980005245424F4F54004552524F520044495372
:10C99000434F4E4E45435400535441525445440076
:10C9A000011704FC98000000B8C80F00021704FC2F
:10C9B000DC000000C4C90F000000000000000000FF
:10C9C000000000000107000098000000B8C80F0038
:10C9D000020100000100000000000000030500004B
:10C9E0004100000000000000000000000000000006
:10C9F00000000000464C4153482048454144455200
:10CA0000002041444452002053495A4500204352DB
:10CA100043002056455253494F4E00435243205441
:10CA20004553542E2E2E00435243204D49534D4121
:10CA3000544348004E4F5420464C415348494E47BA
:10CA400000435243204F4B0054455354494E472E08
:10CA50002E2E0044494646204154200020562000F6
:10CA600052454D4F5645204845414445522E0046BB
:10CA700049524D5741524520444946464552454E3C
:10CA8000542E00464C415348494E472E2E2E00420C
:10CA9000494E415259204D4154434845532E0000C0
:10CAA0002800480000204000B18C0F00B98A0F0018
:10CAB000598C0F0051AF0F002000000078000000DB
:10CAC00000000000982F8A4291443771CFFBC0B517
:10CAD000A5DBB5E95BC25639F111F159A4823F9249
