:02000002F0000C
:10700000F0FF032039730F0061730F0063730F00EB
:1070100065730F0067730F0069730F0000000000B5
:1070200000000000000000000000000051A70F0059
:107030006D730F00000000006F730F0071730F007D
:1070400073730F0073730F0073730F0073730F006C
:1070500073730F0073730F0073730F0073730F005C
:1070600073730F0073730F0073730F0073730F004C
:1070700073730F0073730F0073730F0073730F003C
:1070800029CB0F00A1970F0073730F0073730F00CC
:1070900073730F0073730F0085A30F0073730F00DA
:1070A00073730F0073730F0073730F0073730F000C
:1070B00073730F0073730F000000000000000000E6
:1070C00073730F0073730F0073730F0073730F00EC
:1070D00073730F0073730F0073730F0073730F00DC
:1070E00073730F0073730F0073730F0000000000C1
:1070F0000000000073730F000000000073730F00A6
:10710000000000000000000000000000000000007F
:10711000000000000000000000000000000000006F
:10712000000000000000000000000000000000005F
:10713000000000000000000000000000000000004F
:10714000000000000000000000000000000000003F
:10715000000000000000000000000000000000002F
:10716000000000000000000000000000000000001F
:10717000000000000000000000000000000000000F
:1071800000000000000000000000000000000000FF
:1071900000000000000000000000000000000000EF
:1071A00000000000000000000000000000000000DF
:1071B00000000000000000000000000000000000CF
:1071C00000000000000000000000000000000000BF
:1071D00000000000000000000000000000000000AF
:1071E000000000000000000000000000000000009F
:1071F000000000000000000000000000000000008F
:1072000010B5054C237833B9044B13B10448AFF3E0
:1072100000800123237010BDC05B0020000000002F
:10722000F8D50F0008B5034B1BB103490348AFF372
:10723000008008BD00000000C45B0020F8D50F00EE
:10724000154B002B08BF134B9D46A3F5803A002138
:107250008B460F461348144A121A00F063F80F4B7E
:10726000002B00D098470E4B002B00D098470020F1
:10727000002104000D000D48002802D00C48AFF397
:10728000008000F02BF82000290000F0FBFB00F04C
:1072900011F800BF00000800F0FF0320000000000C
:1072A00000000000C05B0020407E002000000000C5
:1072B0000000000008B5074B044613B10021AFF3EE
:1072C0000080054B1868836A03B19847204600F098
:1072D00031F800BF000000000CCF0F0070B50D4D5D
:1072E0000D4C641BA4100026A64209D10B4D0C4C7A
:1072F00005F000FE641BA4100026A64205D170BD57
:1073000055F8043B98470136EEE755F8043B98479B
:107310000136F2E7A45B0020A45B0020A45B002000
:10732000A85B002002440346934200D1704703F853
:10733000011BF9E7FEE700BF0649074A074B9B1A06
:1073400003DD043BC858D050FBDC02F0D9FDFFF749
:1073500077FF00005CD60F00B8570020C05B00200C
:10736000FEE7FEE7FEE7FEE7FEE7FEE7FEE7FEE7F5
:10737000FEE7FEE7012359B91F2886BF00F01F0072
:10738000094A4FF0A04203FA00F0C2F80C0570471A
:107390001F2886BF00F01F00034A4FF0A04203FAE7
:1073A00000F0C2F8080570470003005010B504460D
:1073B000FFF7E0FF1F2C86BF04F01F04044B4FF0C3
:1073C000A04304F5E074032243F8242010BD00BF5D
:1073D000000300500B234B4310B503EBE003094CB3
:1073E00000F0070201209040E25C1043E054064B9D
:1073F0001A688A42C8BF1960044B1A688A42B8BF2B
:10740000196010BDDD5B0020A85F0020205800201F
:1074100070B50F4A0F4C07234FF080614FF00065A5
:10742000216000BF00BF00BF00BF40FA03F6F607AF
:107430004CBF1560256000BF00BF00BF00BF1160DA
:1074400000BF00BF00BF00BF13F1FF33E8D270BD23
:10745000080500500C0500502DE9F74F394E3A4D04
:1074600032682B689A423FDC384CE77B94F810A0D6
:1074700017F010030CBF0121002150460093FFF7C5
:1074800079FF37682A68974231DD0020FFF7C0FF97
:107490000020FFF7BDFF94F8511094F85200C1F39B
:1074A0000011FFF767FF94F84E1094F84F0011F0A9
:1074B000100118BF0121FFF779FF009B191C18BFAD
:1074C00001215046FFF756FF214BA17C1A78E07C42
:1074D000C1F30011514081F001011970FFF74AFF1B
:1074E000B023336000232B6003B0BDE8F08F194B4D
:1074F0004FF00B094FEA470B4FF0010809FB073922
:107500009020FFF785FF0BEB0800FFF781FF0022BB
:10751000D11002F0070019F801100192014111F099
:10752000010F0CBFFF200020FFF772FF019A01320C
:10753000582AEDD1B8F1020F01D10137A2E74FF07F
:107540000208DDE7A85F00202058002077D10F0057
:10755000DC5B0020DD5B002010B5094C217E607EE5
:1075600011F0100118BF0121FFF720FF617DA07D00
:1075700011F0100118BF0121BDE81040FFF716BF40
:1075800077D10F002E2A2DE9F84F04460D4634D04E
:107590002B2A34D0602A01D9203AD2B2303A5E2A5E
:1075A00029D8052392FBF3F303EB8303D31AD21AF2
:1075B00003EB4308134B002603EB420904F1010AD5
:1075C00004F1020B39F8027B47FA08F7790703D573
:1075D000A9192046FFF7FEFEBA0703D5A9195046A0
:1075E000FFF7F8FEFB0703D571195846FFF7F2FEC7
:1075F0000136052EE6D1BDE8F88F5C22CEE74022A9
:10760000CCE700BF50CF0F002DE9F041194C1A4DC7
:10761000DFF87880471E17F8012F1AB9BDE8F0414E
:10762000FFF71ABF21682868FFF7ACFF3B780A2BE9
:1076300018D12668B31D532B2360ECDD4FF45C7228
:1076400041460E4805F048FC582200210C48FFF73F
:1076500069FE0C4B00221A600B4B023E572226603B
:107660001A60D8E70D2B16BF2B68022304332B605A
:10767000D1E700BF1C58002018580020DD5B002017
:107680004D5F0020A85F002020580020355C0020BE
:107690001FB547F630020023CDE901230DF10604A2
:1076A000CDF80B301C2220FA02F101F00F01CBB211
:1076B0000929D4BF30333733043A04F8013B131D92
:1076C000F1D1002301A88DF80E30FFF79DFF04B023
:1076D00010BD000008B5FFF797FF0248BDE808405D
:1076E000FFF792BFB6CF0F0008B54FF472720021BA
:1076F0000848FFF717FE084A02231360074A136081
:10770000074B00221A60074BAF221A60BDE8084001
:10771000FFF7A2BEDD5B0020185800201C58002097
:10772000A85F00202058002010B5204CE17B207C71
:1077300011F0100118BF0121FFF738FE94F84E3008
:1077400094F84F00DA064CBF00210121FFF72EFE0E
:1077500094F8513094F85200DB064CBF002101210F
:10776000FFF724FE637DA07DD9064CBF00210121D7
:10777000FFF71CFEA37CE07CDA064CBF0021012150
:10778000FFF714FE237E607EDB064CBF0021012143
:10779000FFF70CFE064B074843F001039847FFF73D
:1077A000A3FFBDE81040FFF79FBF00BF77D10F00D8
:1077B000B0CF0F0000C40900094A92F8343092F8A3
:1077C00033201F2B8ABF07494FF0A04103F01F034E
:1077D000D1F81005D84080EA121000F0010070477F
:1077E00077D10F000003005008B5FFF7E5FF104AFE
:1077F00060B910600F4B104AC3F8002640F6CD4127
:1078000000220E48BDE8084001F08ABE136801332B
:107810000A2B1360EEDDBFF34F8F0949094BCA688D
:1078200002F4E0621343CB60BFF34F8F00BFFDE76C
:10783000C45F0020000001403546526EAC5F00205E
:1078400000ED00E00400FA05C1B91F2887BF00F071
:107850001F01114A01464FF0A04201238B40C2F89C
:107860000C351F2886BF00F01F000B4B4FF0A043C4
:1078700000F5E070032243F8202070471F2887BFDF
:1078800000F01F01044A01464FF0A04201238B4043
:10789000C2F80835E5E700BF0003005070477047A5
:1078A000274E80B5FFF758FE00F0C6FB96F839303A
:1078B00096F83A4013F0100514BF0021012120462C
:1078C0002746FFF7C1FFFFF777FF0028FBD1012311
:1078D00055BB1F2C86BF04F01F071A4A4FF0A04269
:1078E000BB40C2F80C3596F834201F2A86BF154BD2
:1078F00002F01F024FF0A04303EB8203124AC3F8C9
:107900000027D3F8002722F44032C3F80027D3F829
:10791000002742F44032C3F800274FF08043012291
:10792000DA67C3F80025FEE71F2C86BF04F01F07A7
:10793000044A4FF0A042BB40C2F80835D3E700BF6D
:1079400077D10F00000300500C00030070B5FFF763
:1079500033FF234B1B6A0446DBB92248FFF7BAFE0C
:10796000002C3AD02048214D214EFFF74DFE4FF418
:10797000206445F00105FFF71FFF38B35CB14FF6F7
:10798000C010A847630602D13046FFF73DFE013C18
:10799000F1E70028E6D11748FFF79CFE134B164885
:1079A00043F001039847154B01214FF42032C3F8EF
:1079B0000C15C3F80425D3F808250A43C3F8082595
:1079C0000F4A19600020C3F8002670BD002CE2D0D9
:1079D000FFF78AFE0B48FFF77DFE0120F5E700BFA9
:1079E00098730020E6CF0F00F4CF0F00E0CF0F0018
:1079F00031D00F003DD00F0000A861000000014011
:107A00003546526E33D00F0008B5084A08480121A8
:107A100001F07AFD002240F6CD41064801F080FDDC
:107A20000548BDE80840FFF755BE00BFE9770F00E5
:107A300074D00F00AC5F002055D00F000148FFF755
:107A400049BE00BF4DD00F000148FFF743BE00BF45
:107A50004AD00F00072810D8DFE800F004090B0D0A
:107A60000F060F06FFF7D0BF0448FFF733BEFFF73E
:107A7000E5BFFFF7E9BF0248F7E7704763D00F00A3
:107A800069D00F00F8B5334B93F8331093F83420D6
:107A900011F0100F0CBF012103211F2A86BF02F035
:107AA0001F022D484FF0A04002F5E072890040F817
:107AB000221093F8391093F83A0011F0100118BF12
:107AC0000121FFF7C1FE4FF08043D3F8005415F0B9
:107AD0000B0F13D115F00F0705D0FFF76DFE68B936
:107AE00067B9FFF7DDFE1D4E4FF47A7446F00106CC
:107AF0004FF47A40B047013CFAD1EEE7FFF714FEAD
:107B0000174CEB0702D52046FFF7E4FD6D106278B5
:107B1000631CEAB95B780234002BF2D14FF080434A
:107B20004FF0FF32C3F800240E48FFF7D3FDFFF7F4
:107B300043FE08B900F006FA084B0B4843F0010376
:107B400098470A4804F0C4FD04F01AFE0020F8BD6E
:107B50001C46DCE777D10F0000030050E0CF0F0098
:107B6000B9CF0F0078D00F000048E801557A0F0018
:107B7000024B800143F00103184700BF90D00F0073
:107B800007B5AB238DF8073001210DF10700044B39
:107B900098473220FFF7ECFF03B05DF804FB00BF0D
:107BA0003D5900201F2886BF00F01F00064B4FF0F4
:107BB000A0430122824000F5E070C3F808250322AB
:107BC00043F82020704700BF000300502DE9F34127
:107BD0003149324C91F82B00314FFFF7E3FF91F818
:107BE0002E00FFF7DFFF91F83100FFF7DBFF91F880
:107BF00028301F2B86BF03F01F032A4A4FF0A042F4
:107C000003F5E0730C2142F823106420FFF7B0FF66
:107C10006623012101A88DF80430A0479923012192
:107C200001A88DF80430A0473220FFF7A1FFFFF72D
:107C3000A7FFFFF7A5FFFFF7A3FFFFF7A1FF0425AD
:107C400040F2E9364FF00608013E13D10A20FFF753
:107C50008FFF0123022101A8ADF80430A0470A20BC
:107C6000FFF786FF013D11D10F48FFF781FF02B0FA
:107C7000BDE8F081B8478307E8D401A801218DF859
:107C80000480A0470A20FFF773FFDDE7B84710F034
:107C90001C0FD5D1E8E700BF77D10F003D59002078
:107CA0008D59002000030050A086010038B50D4614
:107CB0000A4B014604462022284698472868431C60
:107CC00009D020F07F4020342044B0F1C14F8CBF58
:107CD0000020012038BD0020FCE700BFF95900203A
:107CE0002DE9F04FC5B06C4684E80F004E9D0E465E
:107CF000103507460DF110080EB901202BE0B6F53E
:107D0000807FB14628BF4FF48079184B4A462946F8
:107D1000404698470024434617F804A013F8011B77
:107D2000514507EB040B19D01148FFF76DFC58467D
:107D3000FFF7AEFC0F48FFF7CDFC18F80400FFF783
:107D4000A7FC0D48FFF760FC5046FFF7A1FC09486F
:107D5000FFF7C0FC002045B0BDE8F08F01344C4572
:107D6000DAD125442744361BC6E700BFF959002065
:107D70006AD10F00B8CF0F0073D10F002DE9F04387
:107D8000D1B004AC0146594E054610222046B047FA
:107D900023680133B14646D06368002B43D0544872
:107DA000FFF798FC2068FFF773FC5248FFF792FC3E
:107DB0006068FFF76DFC5048FFF78CFCA068FFF788
:107DC00067FC4E48FFF786FCE068FFF761FC4C4813
:107DD000FFF780FC2368B3F5772F24D04948FFF7DD
:107DE00079FC00236668029305F11008002E1DDC63
:107DF000A268029B9A4232D04348FFF76BFC43488B
:107E0000FFF768FC0298FFF743FC4148FFF762FC6C
:107E10003F48FFF75FFC00233E4A3F493F48089335
:107E2000089B934215DD51B0BDE8F083B6F5807F25
:107E30003746A8BF4FF4807741463A4610A8C84756
:107E400002AA394610A801F0C7FBB8440290F61BFD
:107E5000CCE7C1F80006089B01330893E0E73048FF
:107E6000304EFFF737FC3048FFF734FC009594E8BC
:107E70000F00FFF735FF07462C48FFF72BFC0623C2
:107E8000012108A88DF82030B047A5F11C0300227D
:107E90000392039AB2F57A7F21DB02228DF820202B
:107EA0001A0C8DF821205BBA1C22002109A8ADF81C
:107EB0002230FFF737FA20210DEB0100B0471C4EAE
:107EC000B047C307FCD46FB91A48FFF703FC1A4840
:107ED000FFF700FC009594E80F00184CA047039AA8
:107EE0000132D5E71648FFF7F5FB9CE7F95900206A
:107EF000CCD00F00D9D00F00DFD00F00E5D00F009D
:107F0000EAD00F00F3D00F00FFD00F000CD10F000C
:107F1000B8CF0F003F4B4C00000001403546526E79
:107F200019D10F003D59002020D10F002BD10F0097
:107F30008D5900203AD10F004ED10F00E75A002092
:107F40005AD10F002DE9F043354889B0FFF7C2FB45
:107F5000FFF73CFE69460020FFF7A8FE28B931482C
:107F6000FFF7B8FB09B0BDE8F0834CF252354FF093
:107F700000092D4E2D4F4FE09DF804302E2B2AD1B5
:107F80009DF80530662B26D19DF80630692B22D14D
:107F90009DF80730722B1ED19DF808306D2B1AD139
:107FA0009DF80930772B16D19DF80A30612B12D13C
:107FB0009DF80B30722B0ED19DF80C30652B0AD139
:107FC0009DF80D303BB91A48FFF784FB09F12000FA
:107FD000FFF7D4FEC6E7009C24F07F4423344C44D2
:107FE00024F00308C845BAD308F12003B3F1C14F08
:107FF000B5D869464046FFF759FE60B9344004F5EC
:1080000080583C4414F1C14FA9D969464046FFF756
:108010004DFE0028A3D0C146013DADD105489FE7E4
:1080200096D00F00A4D00F0000F0FFFF0010809F3B
:10803000BDD00F00AED00F0007B5FFF7C7FDB923C5
:108040008DF8073001210DF10700044B98470220FD
:10805000FFF78EFD03B05DF804FB00BF3D59002023
:10806000C3F10803DB0070B50133002403A500BF92
:108070005B1920C940CAAD1920C0184720C940CAA1
:10808000754120C020C940CA754120C020C940CADE
:10809000754120C020C940CA754120C020C940CACE
:1080A000754120C020C940CA754120C020C940CABE
:1080B000754120C06441204670BD00BF0000000033
:1080C000C3F10803DB0070B50133002403A500BF32
:1080D0005B1920C940CAAD1B20C0184720C940CA3F
:1080E000B54120C020C940CAB54120C020C940CAFE
:1080F000B54120C020C940CAB54120C020C940CAEE
:10810000B54120C020C940CAB54120C020C940CADD
:10811000B54120C06441B4FA84F0400970BD00BF8D
:108120002DE9F041013B00249B0025462646A4464C
:108130005FF0000E03E05FEA0C0EBEEB030EBCEB3B
:108140000E0752F8078051F80E70A7FB0878E41963
:1081500055EB080556F100061EF1040E9E4501DCA4
:10816000E645ECDD40F80C402C46354600261CF177
:10817000040C9C45DCDDBCEB430FDCDD40F80C401F
:10818000BDE8F081002310B51C465AB2914200DCD4
:1081900010BD40F823400133F7E710B500231A461D
:1081A0005CB2A14203DCB2FA82F0400910BD50F883
:1081B000234001332243F3E74A11012350F8220000
:1081C00001F01F0103FA01F108407047013910B5B1
:1081D00049B2041D0A06CBB204D4013954F8212057
:1081E000002AF7D001335BB273B103F18042013A48
:1081F00050F82220002022B9013B00EB431318B2B3
:1082000010BD52080130F6E71846F9E710B5002313
:108210005CB2A24200DC10BD51F8234040F823407C
:108220000133F5E710B5013A52B2130601D500202B
:1082300010BD50F8224051F822309C4205D802F17E
:10824000FF32F2D24FF0FF30F2E70120F0E700EB0F
:1082500081010023884200D3704751F8042D43EA7E
:1082600052030B60D307F5E770B59DF910401E4629
:1082700023460546FFF7F4FE30B92246294630462C
:10828000FFF7D0FF012807D023463246294628466B
:10829000BDE87040FFF714BF70BD70B59DF9104088
:1082A0001E4623460546FFF70BFF38B123463246EC
:1082B00029462846BDE87040FFF7D2BE70BD2DE9C3
:1082C000F04FB5B004AC9DF9F8501F4681462B46DF
:1082D0002046FFF725FF24AB29463846CDE9023476
:1082E000FFF774FFC0EB851004B2002C2646B8BF20
:1082F00004F11F06634246F3471603F01F0304F020
:108300001F0814A858BFC3F100083146FFF73AFF11
:10831000B8F1000F30B22DDD14AB002203EB80006A
:10832000C8F1200C1346AB4219D32FB27B00019346
:1083300014AB03EB870705F1FF3834AB012603EBE1
:108340008808002C54DA34AB03EB86062A4656F82C
:10835000C81C4846FFF75AFF35B0BDE8F08F57F804
:10836000236006FA08F10A4340F8042B013326FA89
:108370000CF2D8E714AB2A46394603EB8000FFF72E
:1083800045FFD2E70FFA82FE5AF8C83C53F82EB0E8
:1083900034AB03EB8202013052F8803C0B44BBEB60
:1083A000030334BF012200229B4518BF11465CF82D
:1083B000C82C42F82E30019B42B29A42E2DB731A7B
:1083C0005E42294614A85E41FFF741FF34AB03EB40
:1083D0008503294653F8802C58F8803C384643EAF8
:1083E000C273013C48F8803C24B2FFF730FFA8E795
:1083F00034AB0020C6F1010C014603EB860A03EB07
:108400008C0CD8E730B51C4691B0054693F9003086
:108410006846FFF785FED4F8B0306946284698478D
:1084200011B030BD13460A46FFF7ECBF2DE9F04707
:1084300093F9006092B004468946104631461546CD
:108440009846FFF7AAFE002840F091804246494630
:1084500002A8FFF7E7FF434602AA21460AA8FFF752
:10846000D1FF02A908464246FFF7DCFF43462A46F1
:1084700049464846FFF7C6FF08F104074246294629
:108480002846FFF7CFFF3B462A4621462046009666
:10849000FFF7EAFE3B462A46294628460096FFF7A4
:1084A000E3FE3B462A46214628460096FFF7F5FEA6
:1084B00043462A4621462046FFF7A4FF3B46224674
:1084C000214628460096FFF7CFFE3B4600962A46F7
:1084D00021462046FFF7C8FE2368DB074AD533460E
:1084E0003A4621462046FFF7BBFD314682462046EC
:1084F000FFF7ADFE06F18043013B54F8230040EA4C
:10850000CA7044F82300424621462846FFF78AFFF6
:108510003B460AAA294628460096FFF7BEFE3B4680
:108520000AAA294628460096FFF7B7FE0AA9084678
:108530003B462A460096FFF7B0FE43460AAA21466C
:108540002046FFF75FFF02AA3B46104621460096F1
:10855000FFF7A3FE324629462046FFF757FE49465D
:108560002846FFF753FE02A94846FFF74FFE12B018
:10857000BDE8F08731462046FFF769FEC3E72DE9E5
:10858000F04115468AB0044688461C22002103A803
:10859000FEF7C8FE2E1D95F9007003232A464146BA
:1085A00020460293FFF73EFF334602AA21462046AB
:1085B0000097FFF772FE2B46424621462046FFF702
:1085C00021FF0097334605F1840221462046FFF73C
:1085D0004BFE0AB0BDE8F081F0B591B00E461C220A
:1085E0000021074601A8FEF79DFE01241C22002160
:1085F00009A80094FEF796FE31466A4611F9045B1D
:1086000008942B466846FFF72BFD29466846FFF77E
:10861000DDFD013804B2012C06DC2A4608A93846E3
:10862000FFF7F4FD11B0F0BD08A908463246FFF788
:10863000F9FE21466846FFF7BFFD28B108A9334679
:108640003A460846FFF7DEFE013C24B2E3E70000AD
:10865000F0B5082289B00C460646FFF7D7FDCB6A75
:1086600003930B6B04934B6B05938B6B0693CB6B54
:108670000793002708236A4669466846CDE90177D3
:108680000097FFF7EDFC082305466A463146304661
:10869000FFF7E6FC236B0393636B0493A36B0593D3
:1086A000E36B0544CDE906376A4608236946684608
:1086B000FFF7D6FC082305446A4631463046FFF7EB
:1086C000CFFC236A0093636A0193A36A0293A36BAE
:1086D0000693E36B0793054408236A463146304608
:1086E000CDE904770397FFF7BBFC636A0093A36AA5
:1086F000A26B0193E36A02930492636BE26B0393B0
:10870000CDE90523236A0793054408236A463146C9
:108710003046FFF7A5FCE36A0093236B0193636B7C
:108720000293236A0693A36A0793054408236A46C3
:1087300031463046CDE904770397FFF7C1FC236B40
:108740000093636B0193A36B0293E36B0393636AE0
:108750000693E36A07932D1A08236A46314630468A
:10876000CDE90477FFF7ACFC636B0093A36B019337
:10877000E36B0293236A0393636A0493A36ACDE9CC
:108780000537236B07932D1A08236A463146304676
:10879000FFF796FCA36B0093E36BCDE90137636AA7
:1087A0000393A36A0493E36ACDE90537636B0793E8
:1087B0002D1A08236A4631463046FFF781FC2D1AF0
:1087C0000D4C0FD435B9082231462046FFF72AFD5B
:1087D00001280FD00823224631463046FFF770FCAF
:1087E0002D1AEFE70823224631463046FFF738FCC2
:1087F0002D18F7D409B0F0BD0CD20F00F0B5154616
:1088000089B01C4607460E461A4629466846FFF7B9
:1088100009FE23466A4639463846FFF7F3FD2346EC
:108820002A4669466846FFF7EDFD23466A4631460B
:108830003046FFF7E7FD09B0F0BD2DE9F0438BB0FE
:108840001446129D15F9046B00961F468046894612
:108850002B460246214602A8FFF71FFD02A9129AE5
:108860000846FFF7DFFD129B02AA41464046FFF78C
:10887000C9FD129B02AA21462046FFF7C3FD2B46E5
:108880004A46394638460096FFF707FD129A3946A0
:1088900002A8FFF7C7FD02A92B46424608460096EC
:1088A000FFF7FBFC02A92B46224608460096FFF77D
:1088B000F4FC2B464246214620460096FFF7EDFC8D
:1088C000129B224649464846FFF79CFD2B4602AACA
:1088D000414620460096FFF7E0FC129B22463946AF
:1088E0003846FFF78FFD2B464A46394638460096F4
:1088F000FFF7D3FC324602A92046FFF787FC0BB0F6
:10890000BDE8F083F8B50E46D11C48BF911D144652
:1089100041F387010546671EFFF734FC00214AB288
:10892000A24201F1010100DBF8BDBB1A23F00300F4
:10893000B25C03F00303DB0002FA03F32A581A4384
:108940002A50ECE72DE9F0471F46B3F9023089467B
:1089500013F11F0148BF03F13E014D11D91D48BF5E
:1089600003F10E01CC1094424FFA85F828BF14464B
:1089700041460646FFF706FC22464946FFF7C2FF7E
:10898000B7F90220E40094421FD9A41A06EB85012E
:108990000022C4F120058E420ED3243742463146D0
:1089A0003846FFF73FFC01280FD043463A46304691
:1089B000BDE8F047FFF784BB51F8040D20FA04F33B
:1089C00013430B6000FA05F2E5E7BDE8F08770B5E8
:1089D000036813F001050646144605D013460A46FF
:1089E0000146FFF73DFB054621463046FFF72FFCC9
:1089F00045B104F18042013A56F8223043F0004379
:108A000046F8223070BDF0B50F46A1B006461946B3
:108A1000384615461C46FFF7C0FB20B13046FFF72D
:108A2000B1FB21B0F0BD224639466846FFF7EEFBA8
:108A3000294608A8FFF7EAFB10A82146FFF7A2FB8A
:108A4000012318A81093FFF79DFB224608A968464A
:108A5000FFF7E8FB28B9224610A93046FFF7D6FBFE
:108A6000DFE7009BDA0709D421466846FFF7EFFBF2
:108A70002246294610A8FFF7AAFFE6E7089BDB0776
:108A800007D4214608A8FFF7E2FB2246294618A88A
:108A9000F1E7002823461CDD08AA69466846FFF76F
:108AA0000FFB21466846FFF7D2FB224618A910A803
:108AB000FFF7B8FB002805DA10A923462A46084626
:108AC000FFF7CEFA10A9234618AA0846FFF7F8FACE
:108AD000CEE708A96A460846FFF7F2FA214608A839
:108AE000FFF7B5FB224610A918A8FFF79BFB00284B
:108AF00005DA18A923462A460846FFF7B1FA18A94D
:108B0000234610AA0846FFF7DBFABEE70048704785
:108B100008D20F002DE9F04FFDB01D46869E05924C
:108B2000B6F9023096F9004013F11F0748BF03F170
:108B30003E0747F3471707F1FF3924AB4FF0000B0F
:108B400043F829B07CAB03EB8902804642F8C0BCF5
:108B500042F8A0BC8A4696F9012001466CA8FFF7AE
:108B6000D1FEA3000793A2006CAB134496F9012039
:108B70000493184608EB0201FFF7C4FE294696F954
:108B800001204CA8FFF7BEFE96F9012054A8A918B1
:108B9000FFF7B8FE21464CA8FFF7FFFA054600286C
:108BA00040F0348154A8FFF7F8FA8346002840F0DB
:108BB0002B8106F124033A464CA918460393FFF78C
:108BC00031FB012840F022813A4654A90398FFF76F
:108BD00029FB0128069040F019811CAD0DF13008E9
:108BE0003B46039A54A92846FFF70DFF51464046DD
:108BF0003346059A48F829B0FFF7A4FE414640469F
:108C0000039B00972A46FFF75AFB0DF5B879039BA3
:108C100000972A464CA914A8FFF751FB2246484664
:108C20006CA9FFF7F3FAA30009EB030A5046049975
:108C3000FFF7ECFA06F14403194634A80493FFF752
:108C4000E5FA049BA10059183CA8FFF7DFFA331D91
:108C5000494634AA284600940593FFF71EFB534665
:108C60004A463CA934A80096FFF7E7FD2346321D8B
:108C700029462846FFF7C7FE2A465146484633464E
:108C8000FFF7BCFD049B099339466CAB4046CDE928
:108C90000A39CDF820B0FFF799FA3946814614A871
:108CA000FFF794FA8145B8BF81461FFA89F909F1A7
:108CB000FF331BB2194640460493FFF77DFA049B2D
:108CC00010F10008194614A818BF4FF00108FFF76B
:108CD00073FA002814BF0223002348EA03080DF1A9
:108CE000200A22465AF8288024A84146FFF78EFA27
:108CF0000DF1B00AA30008EB03015046FFF786FA16
:108D000021462846FFF73EFAA9F10208069B2B6090
:108D10000FFA88F80DF190090495B8F1000F22DAE6
:108D2000DDE9041223460846FFF76DFE3346049A38
:108D300051464846FFF762FD3A4649460398FFF719
:108D400071FA012804D03B46039A4846FFF7B8F968
:108D5000013C64B24CAA23064DD5BBFA8BF0400906
:108D60007DB0BDE8F08F049AD6F8A4503346514642
:108D70004846A84741460CA8FFF71EFA031C18BF37
:108D80000123414614A80693FFF716FA069B002814
:108D900014BF02220022134308AA52F823302BB337
:108DA0002246194634A80693FFF730FADDE906316A
:108DB0003CA85918FFF72AFA3346049A3CA934A86C
:108DC000FFF71CFD059B009434AA494644A8FFF711
:108DD00064FA53464A463CA934A80096FFF72DFD95
:108DE0000499334644AA0846FFF70CFB08F1FF3804
:108DF0000FFA88F891E759F8243052F824104B40C4
:108E00004BEA030B013CA6E72846A9E75846A7E72B
:108E10002DE9F04FC9B008AA01F1400514464B787E
:108E20000E781B0443EA0663CE7833438E78043110
:108E300043EA06238D4244F8043BF0D11024916BA1
:108E400016464FEAF14383EA714383EA9123716A3C
:108E5000366852F8045F31440B444FEAB54181EA69
:108E6000F51181EAD50101340B44402CD363E6D1DE
:108E7000D0E914E30093836D0193C36D0293036EF5
:108E80000393436E0493836E0593C36E0693DDE9EB
:108E9000057BDDE9031CDDE901592B4B009E07939F
:108EA00074464FF00008079B53F8042B07934FEAD2
:108EB000F12383EAB11383EA716A08AB53F82830CF
:108EC0001A440AEB020327EA010A01EA0C028AEAC1
:108ED00002021A444FEA743A86EA05035A448AEABF
:108EE000B40A06EA050B234083EA0B038AEAB45A64
:108EF00008F101089A44B8F1400F02EB0903BB46A0
:108F00005244A94619D172440265009A224442652E
:108F1000019A32448265029A2A44C265039A1A442D
:108F2000049B02660B444366059B63448366069B71
:108F30003B44C36649B0BDE8F08F674635468C4672
:108F4000264619461446AEE7BCD20F0030B5E0B154
:108F50000F4A104900240025C0E91245C0E9141247
:108F60000D4C0E4A0E4DC0E916420E4AC0E9185289
:108F70000D4A826602F17452A2F523020023A2F682
:108F800092420364C266184630BD0E20FCE700BF63
:108F900085AE67BB67E6096A72F36E3C3AF54FA58A
:108FA0007F520E518C68059BABD9831FF8B50446E0
:108FB000F0B10AB90020F8BDD1B10D468E180027D6
:108FC000B542F7D0236C15F8012BE2540133402B46
:108FD0002364F5D121462046FFF71AFFD4E9123168
:108FE00013F5007341F10001C4E912312764E7E78A
:108FF0000E20E0E770B50D4616460446002877D0EF
:10900000002975D0026C8021372A02F101038154B6
:109010004FF0000242D8382B3BD1D4E91223206C08
:109020000821E1FB0023104612BAE2631A0A19462E
:1090300084F83B3084F83A201A0C1B0EC4E9120164
:1090400084F83920214684F838302046FFF7E0FEC6
:10905000691E76B30023E26EDA4001F8012FA26E9A
:10906000DA400A71626EDA400A72226EDA400A73DE
:10907000E26DDA400A74A26DDA400A75626DDA4078
:109080000A76226DDA400833202B0A77E3D10020DC
:1090900070BDE2540133BEE7E25401333F2BFBD9EC
:1090A00021462046FFF7B4FE38220021FEF73AF9A8
:1090B000B3E71823226DDA4001F8012F626DDA4020
:1090C0000A71A26DDA400A72E26DDA400A73226E0A
:1090D000DA400A74626EDA400A75A26EDA400A76E5
:1090E000E26EDA40083B13F1080F0A77E2D1CEE7CF
:1090F0000E20CDE710B513681F2B144607D90122A7
:109100000830FFF777FF08B92023236010BD48F22D
:109110001450FBE70830FFF749BF0830FFF716BFD0
:1091200030B54C1CE40012F00303A4B20ED1084D7C
:109130002A602244074C2260074A1370074A1370C2
:10914000074A1080074A1846118030BD0720FCE707
:10915000D05F0020CC5F0020C85F0020D85F0020D7
:10916000D45F0020D65F00202DE9F743294D2B88DE
:109170008B4206460C46174647D34FF000080DF1C8
:1091800007008DF8078000F0EDF9234B234A18788B
:109190001178CBB2224909888B4238BF0133C0B263
:1091A00038BF5FFA83F8404528D092F800801378E2
:1091B000DBB2994286BF0133DBB2002313709DF806
:1091C000070000F0F3F94FF6FF7398451FD0154BD9
:1091D0001B6803EBC80943F8387096B18CB1124B89
:1091E00028881B682246314608FB003003F074FED5
:1091F000A9F80440002003B0BDE8F0834FF6FF78E3
:10920000DDE70020A9F80400F5E70920F3E70420D2
:10921000F1E700BFD45F0020D85F0020C85F0020C6
:10922000D65F0020D05F0020CC5F0020F8B5124C44
:10923000124D264622782B789A4200D1F8BD237829
:109240000F48104A078812680F48DBB219B202EBC8
:10925000C10C006852F83120BCF8041003FB070071
:1092600090470A4A23781288DBB29A4286BF0133BC
:10927000DBB200233370DDE7D85F0020C85F002039
:10928000D45F0020D05F0020CC5F0020D65F00209C
:1092900040684B6898428CBF002001207047000056
:1092A00037B505460C460A4801A900F0B8FA60B186
:1092B0000570446001A9064800F0DBFA18B10548C2
:1092C00000F05EFA002003B030BD0420FBE700BFD1
:1092D0003C600020905B002038B5104B1D780446A0
:1092E000A5B1C0B1037D03F0FF057BB1D0E9033028
:1092F0009847A36863B1227D02F0FF0542B162681E
:10930000074813446360214600F0C1FD284638BD7C
:1093100000252575FAE70546F8E700BFE05F002065
:10932000D4D30F002DE9F743054600F01AFA0028C0
:1093300048D10021284600F019FA38B1574C23686B
:1093400023B12068FFF7C8FF0023236001A9544818
:10935000DFF84881534EDFF8549100F09AFA044642
:10936000002C4ED14F4F4D4CDFF84481384600F071
:10937000A4FD002800F08780426823685B682168AC
:1093800051B12168D9B19A4219D223681B7D1BB112
:109390002168384600F07BFD384600F088FD4FF428
:1093A0007A73064642680021404600F089F9002899
:1093B00062D1236813B9284600F07AF9266003B019
:1093C000BDE8F083354A13682BB113685B681268F7
:1093D00023F07F435360334800F06FFD04460028BC
:1093E000A7D06368B3F1807F06D22046FFF774FFF1
:1093F000204600F065FDF1E7636823F07F4363607A
:10940000F6E72378012B2AD04BB1022B1DD1002483
:10941000304600F04CFD00283CD00475F8E7636846
:109420001A7D92B901221A75636828465F6800F0B8
:10943000A3F9381A484581BF6268536823F07F4317
:1094400053606168304600F022FD01A9144800F025
:109450004BFA01A9124800F01CFA044680E7D8F83C
:1094600000306168994208BF0023304608BFC8F841
:10947000003000F027FDE8E70D287FF477AF304695
:10948000FFF72AFF72E72368002B98D1284600F0E7
:1094900013F994E7044B01221A70D6E74C600020C0
:1094A0003C600020D4D30F00E05F002017FCFF00D9
:1094B000905B002013B50023ADF8043007238DF82E
:1094C0000630582208230B490B4800F073F9044674
:1094D00068B90A4A0A4801A900F0A8F8044630B958
:1094E0000121074800F034F9064B01221A7020468A
:1094F00002B010BDE45F00203C60002025930F0007
:10950000905B0020E05F00203AB10368DA604A1EF9
:109510005142514199600020704707207047000078
:1095200038B50B4B994204460D460ED802610948E6
:1095300000F022F9A3682844606003B1A5602146C9
:109540000020BDE83840FFF7ABBE072038BD00BFA4
:1095500017FCFF00905B00200023014603750120EB
:10956000FFF79EBE70B5EFF3108672B60C4A946892
:1095700001239CB993600B4B0B4DD3F8801029400D
:109580001160C3F88050D3F8841051604FF0FF325F
:10959000C3F88420047006B962B670BD0370FAE7A0
:1095A0005060002000E100E0FC06FFBD10B5084B54
:1095B0009A685AB150B9EFF3108172B6054A1C6827
:1095C00014605C685460986001B962B610BD00BF59
:1095D0005060002000E100E030B53AB11368DB4391
:1095E0000A4D0144884204D1D84330BD4FF0FF33C7
:1095F000F6E710F8012B5340082213F0010418BFBE
:109600002C46013A84EA5303F7D1EBE72083B8ED07
:10961000435882B03BB10023435043580193019B10
:10962000012002B070471846FBE7000010B51D4C42
:10963000437944F823201C4C04EBC3031B797BBB08
:1096400003680A88C3F8082590F904308A78002B4B
:109650004FEA4212AFBF03F1604303F00F03134917
:10966000D2B2A9BF03F56143CA54D2B283F8002332
:1096700090F9043003F01F025B099B0003F1604383
:1096800003F56143012101FA02F2C3F880211A6057
:10969000437904EBC30244F833001171002010BD7C
:1096A0000820FCE7646000205C60002014ED00E00E
:1096B000036801221A607047036801225A607047EC
:1096C000F7B51F464FF4803503688D40C3F8085343
:1096D0000368044601F15000C3F848538000236832
:1096E00080B222F07F4600221A501B580193019B42
:1096F000236803EB8101D1F84025C1F84065236858
:10970000D3F80435D21A22F07F42012A05D10F4B3B
:109710004FF4046043F0010398472368C3F84453AF
:109720002368D3F80425B61A26F07F42310248BFD9
:1097300042F07F427F42974201DA022A04DDC3F8F9
:109740000453002003B0F0BD0D20FBE7E0D30F0071
:1097500002680223C2F8443311B10268C2F804332C
:1097600070474FF482710068FFF752BF5031890093
:1097700089B20068FFF74CBF0368D3F8040570474F
:1097800090F9043001215A0903F01F0301FA03F391
:109790004032024941F82230704700BF00E100E04A
:1097A000024B034A1B681068184700BF6460002022
:1097B0005C60002010B561B1B2FBF3F403FB14242C
:1097C000A4B244B9C0E9001484608281C3812046F8
:1097D00010BD0E20FCE70920FAE782B050E8022F06
:1097E000C188B2EB324F4FF0000317BF92B241EA8B
:1097F000014142EA014104E04268B2EB324F08BF46
:10980000012340E80212002AE8D18DF807309DF8C4
:109810000730002B0CBF1120002002B0704737B575
:1098200050E8013F9DB2C48925448489A54228BFE0
:109830002D1B0489A54202BFBFF32F8F002207E032
:10984000C5EA030540E80154002CE9D14FF00102BC
:109850008DF803200193019B9DF803200B6002F01B
:10986000FF0322B10B880068184403B030BD1846CE
:10987000FBE70A884B889A4209D150E8012FC2EAD7
:10988000024240E80123002BF7D10120704700205D
:10989000704737B550E8023F1FFAA3F5C488A542C8
:1098A00002BFBFF32F8F00220DE0C48925448489B5
:1098B000A54228BF2D1BC3EA054540E80254002CF1
:1098C000E8D14FF001028DF803200193019B9DF830
:1098D00003200B6002F0FF0322B14B88006818449C
:1098E00003B030BD1846FBE70A884B889A4209D17D
:1098F00050E8022FC2EA224240E80223002BF7D1AF
:10990000012070470020704750E8002F42EA010311
:1099100040E8003C9CF0000FF6D11046704750E83C
:10992000003F03EA010240E8002C9CF0000FF6D152
:10993000104670470121FFF7E7BF0021FFF7EFBF97
:1099400010B590B1D0E9012301689B1ADBB20A601F
:10995000013BDBB2FF2B026802D10020107110BD69
:1099600011684C1C14600B70F2E70E20F7E737B556
:10997000054600240DF107008DF80740FFF7F2FDC2
:109980002A68696813688B4210D9591E116013F850
:10999000014C2A8AEB6802FB04342A68AB68116820
:1099A0005B1A1179DBB2994238BF13719DF8070039
:1099B000FFF7FCFD204603B030BD37B50546002358
:1099C0000DF107000C468DF80730FFF7CBFD2A6834
:1099D0001368591C1160E968641A298AB4FBF1F410
:1099E0001C709DF80700FFF7E1FD03B030BD01607A
:1099F0000B681146184710B40468E468A4465DF883
:109A0000044B604710B404682469A4465DF8044B15
:109A10006047000070B508B10368ABB90C4D0D4C40
:109A20000026641B1423B4FBF3F4B44201D10020DC
:109A300009E02B6813B901361435F6E7DB692846CF
:109A400098470028F7D070BDDB69BDE87040184723
:109A5000AC5B0020C05B0020014B436000207047DE
:109A6000E8D30F000846704700207047024B186883
:109A7000003018BF012070476860002008B5024818
:109A8000FFF75BFF002008BD6860002008B51046A6
:109A90001A4603F021FA002008BD00002DE9F0412C
:109AA000804686B013480E4615461F46FFF742FF14
:109AB000044630B111200EE006EB043000F034FB18
:109AC0000134A542F8D10B48FFF737FFD8F808302A
:109AD00000241BB9184606B0BDE8F0810222684692
:109AE0008DF80020CDE90146CDE90345059798475B
:109AF0002046F0E7686000202DE9F041804686B0FE
:109B000012480F4616461D46FFF714FF0446D8B903
:109B1000AA083146384600F01FFB0C48FFF70DFF3E
:109B2000D8F808301BB9184606B0BDE8F08101220C
:109B30008DF800200C9A05926846CDE90147CDE9E1
:109B4000036598472046EFE71120EDE768600020A5
:109B500029DF704728DF704770B50568AB6886B0AD
:109B600004460E4673B1142200216846FDF7DAFB65
:109B7000A36805932379019633B1012B0ED0AB680E
:109B80006846984706B070BD01238DF80030236900
:109B90000293E368039363690493F0E702238DF86B
:109BA0000030E3681B030293F5E708467047002086
:109BB00070470000024B187A003018BF0120704730
:109BC00058620020034B187A0122B0FA80F05A74D0
:109BD000400970475862002008B510461A4603F045
:109BE0007BF9002008BD000008B5142200210448BC
:109BF000FDF798FB0348FFF7F0FD002008BD00BF0C
:109C0000586200204862002010B5094C094B43609F
:109C10002046FFF78FFE48B900F09AFB1C23207402
:109C20004FF4EE7204490548FFF7C4FD002010BD53
:109C30005862002014D40F006C600020486200209D
:109C400070B5234D234E2B7A2C463BB9224923482D
:109C5000FFF71FFE306008B9686070BD02232372F1
:109C600033681A7972B1012A22D018460321FFF70E
:109C700073FF00232372636017491848BDE87040E2
:109C8000FFF732BED3E90520121A142A28BF142286
:109C9000D3E903159208012A014438BF0122284460
:109CA000FFF756FF50B11128DFD101232372D4E70B
:109CB000D3E903021044FFF74DFFF3E7237C002BA9
:109CC000CBD10146BDE87040022000F009B800BFCA
:109CD00058620020706200206C6200204862002000
:109CE00038B5831E012B43D8224C237A002B3FD05A
:109CF000022B09D103282ED01F4B00221B68E260E3
:109D00001A793AB1012A20D0637C6BBBBDE8384098
:109D1000FFF796BFD3E905128D1A142D94BF52197F
:109D200014329A619142EFD102284FF0000308BF2C
:109D300019462372104B18BF0D211868FFF70CFF4E
:109D40000E490F48FFF7D0FDDEE71A6901321A61AC
:109D50005B699A42E7E7E3680133082B01D8E360C7
:109D6000D2E70023E360DFE7BDE8384000F0E0BA67
:109D700038BD00BF58620020706200206C62002075
:109D80004862002000F0FD03012B08D1044B0022A3
:109D90005A74421E504250411874FFF751BF704729
:109DA0005862002010B5064C201DFFF7C3FD28B9EE
:109DB000637C1BB9BDE81040FFF742BF10BD00BF78
:109DC000586200202DE9F34180460D46104801A954
:109DD00016461F46FFF723FD0446B0B118220021A6
:109DE0000430FDF79FFA2D0B0123237101A9C4F85C
:109DF0000080A760E56066610548FFF73AFDFFF760
:109E0000D1FF002002B0BDE8F0810420FAE700BFD6
:109E1000486200202DE9F74381468846104801A991
:109E200017461E46FFF7FBFC0446B8B11822002176
:109E30000430FDF777FA00250A9BA36001A925717C
:109E4000C4F80090C4E9037866610548FFF711FD86
:109E5000FFF7A8FF284603B0BDE8F0830420FAE727
:109E60004862002001600B6843604A68934204BF67
:109E7000002343607047436843B1026891680B4414
:109E800043605268934204BF00234360704770B53B
:109E9000446806460D46206818B1B36829469847BD
:109EA00018B923682B60256070BD2468F3E7436808
:109EB000186808B102681A607047436818687047EC
:109EC000006870474368186800B97047884203D13A
:109ED00002681A600120704703460068F4E700003A
:109EE000054B1B68082B01BF044B1868B0FA80F0C3
:109EF000400918BF002070473001001034010010E5
:109F000008B54FF080430022C3F80C21C3F810219C
:109F1000C3F838254FF0805203F54043D2F80414BB
:109F2000C3F82015D2F80814C3F82415D2F80C147D
:109F3000C3F82815D2F81014C3F82C15D2F814144D
:109F4000C3F83015D2F81814C3F83415D2F81C141D
:109F5000C3F84015D2F82014C3F84415D2F82414DD
:109F6000C3F84815D2F82814C3F84C15D2F82C14AD
:109F7000C3F85015D2F83014C3F85415D2F834147D
:109F8000C3F86015D2F83814C3F86415D2F83C143D
:109F9000C3F86815D2F84014C3F86C15D2F84424FD
:109FA000C3F87025FFF79CFF10B1334B334A1A609A
:109FB000FFF796FF18B1324BFB22C3F81825FFF7C5
:109FC0008FFF48B12F49304B0A681B6822F00F02FF
:109FD00003F00F0313430B60FFF782FF18B12B4B05
:109FE0004FF400721A604FF08043D3F80024D20778
:109FF00044BF6FF00102C3F80024254AD2F888302C
:10A0000043F47003C2F88830BFF34F8FBFF36F8FF4
:10A010004FF01023D3F80C32DB0729D51D4B01225A
:10A02000C3F80425D3F80024002AFBD04FF01022F7
:10A03000D2F80C3223F00103C2F80C32154B1A4649
:10A04000D3F800140029FBD00021C3F80415D2F87E
:10A050000034002BFBD0BFF34F8F0D490E4BCA6865
:10A0600002F4E0621343CB60BFF34F8F00BFFDE704
:10A070000A4B0B4A1A6008BD8C5600404881030009
:10A0800000F00040E40E00405802001040960240EC
:10A0900000ED00E000E001400400FA05985B0020BC
:10A0A0000090D00343689B68184770B54668044623
:10A0B0000D46FFF7F7FF04F108007279294600F01A
:10A0C0000CFB002070BD2DE9F0430D469BB0084607
:10A0D00099469046FFF7E6FF6E6874794C4528BFB5
:10A0E0004C4607462246414602A800F0EBFA727938
:10A0F00022990AA800F0F1FA00970AAB224602A9B9
:10A1000005F10800FEF706FD002848F2425018BF8E
:10A1100000201BB0BDE8F083024AD2F80034002BC7
:10A12000FBD0704700E001400A4908B50223C1F89E
:10A130000435BFF36F8FBFF34F8FC1F80805FFF7EA
:10A14000EBFF0023C1F80435BFF36F8FBFF34F8FD0
:10A1500008BD00BF00E001400E4B10B50124C3F85C
:10A160000445BFF36F8FBFF34F8F01EB8204401A9A
:10A17000A14208D1074B0022C3F80425BFF36F8F1B
:10A18000BFF34F8F10BD431851F8042B1A60FFF72F
:10A19000C3FFEDE700E0014010DF704711DF7047BB
:10A1A00013B5044609496846FFF75CFE019808B9F3
:10A1B00002B010BDD0E900312046984718B168467A
:10A1C000FFF759FEF2E71120F2E700BF50D40F006D
:10A1D00013B5044607496846FFF744FE019B0BB9D7
:10A1E00002B010BD2046D3E9002190476846FFF732
:10A1F00042FEF3E768D40F00064B9A6822B11A6852
:10A2000022F480021A607047034B4FF48002C3F8B7
:10A21000802070475060002000E100E00B4A92F877
:10A2200016335B09012B08D9042B06D0084B99681B
:10A2300039B94FF480031360704742F20200FDF712
:10A240002EBB1A6842F480021A60704700E100E0F9
:10A2500050600020F7B5194F3C7864BB184E0125BB
:10A2600020463570FFF79CFF112821D02046FFF7CC
:10A27000AFFF144B8DF80340186801900DF10300F7
:10A28000FFF770F9104901A8FFF786FF0446B0FAFE
:10A2900080F0400938709DF80300FFF787F93CB95A
:10A2A0000A4B34701C70FFF7B9FF2846FFF790FF88
:10A2B000204603B0F0BD0824FAE700BF7562002015
:10A2C000746200204CD40F009D780F00766200204D
:10A2D000F7B5154F3B781BB3144E01203070FFF7D4
:10A2E0005FFF11284FF000051CD00220FFF770FF20
:10A2F0000DF107008DF80750FFF734F9FFF74EFF17
:10A3000004469DF807003D70FFF750F92CB93470F2
:10A31000FFF772FF0320FFF75BFF204603B0F0BD9D
:10A320000824FAE72C46F8E77562002074620020E2
:10A33000054B1B7833B1054B1B780BB1FFF7C8BF3A
:10A34000FFF788BF08207047746200207562002004
:10A35000014B1878704700BF7562002007B50849A7
:10A360006846FFF77FFD019B13B903B05DF804FB5E
:10A37000D3E9002090476846FFF77DFDF3E700BF73
:10A380005CD40F00FFF7EABF60DF704769DF7047FA
:10A3900061DF704730B5104DC7B04FF486740DF1D2
:10A3A000020103A8ADF80240FFF7F2FF70B9294699
:10A3B00001A8FFF757FD029B002BF0D003A8D3E9BB
:10A3C0000021904701A8FFF756FDF4E7052801D0CA
:10A3D000FDF765FA47B030BD74D40F00024B1B780F
:10A3E0000BB1FFF7D7BF70477762002018B1034B5E
:10A3F0000360002070470E20704700BFB857002050
:10A400007FB506460C46002947D0254A0A6000233E
:10A410000621CDE9013301258DF80400ADF80810BF
:10A42000202001A903938DF80650FFF7AFFF2268A3
:10A43000039301A94020CDE901338DF80550FFF7C2
:10A44000A5FF8322CDE9013301A9ADF80620232021
:10A45000226803938DF80460FFF798FF2268039346
:10A4600001A92846CDE901338DF80450FFF78EFF8E
:10A470004FF4B062019201A92268A120CDE9023314
:10A48000FFF784FF2268039301A9A020CDE90133DF
:10A49000FFF77CFF184604B070BD0E20FBE700BF3D
:10A4A000B857002008B5FFF76FFF10B9014B012224
:10A4B0001A7008BD776200204BDF70471FB50D4C46
:10A4C00001A8FFF7F9FF70B9214602A8FFF7CAFCFF
:10A4D000039B002BF4D00198D3E90021904702A8F8
:10A4E000FFF7C9FCF4E7052801D0FDF7D8F904B05F
:10A4F00010BD00BF80D40F0028B139B10023C1E9DD
:10A5000000301846704748F21050704748F2135018
:10A51000704730B1036848F240508B4208BF0020BA
:10A52000704748F21050704728B148F211509142DC
:10A5300008BF0020704748F21050704770B50646BB
:10A540000C461D46FFF7D8FF50B9B3794AB1AB426C
:10A550000AD111462046FFF7A8FD08B9044B236035
:10A5600070BD48F21050FBE748F21150F8E700BF09
:10A570007052464D2DE9F0470C4607460F492046DC
:10A5800015469846DDE90869FFF7C3FF98B9636887
:10A590005A79494652003046FFF7C6FF58B945B1CF
:10A5A000089643462A4621463846BDE8F047FFF75D
:10A5B0008ABD48F21050BDE8F08700BF7052464D8A
:10A5C00010B5044638B149B141600B68984708B9E5
:10A5D000044B236010BD48F20150FBE748F21050D5
:10A5E000F8E700BF6E524648F0B448B107680A4E1B
:10A5F000B74209D159B16AB14368F0BC5B681847EA
:10A6000048F20150F0BC704748F20250FAE748F2B5
:10A610001050F7E71046F5E76E524648F0B460B1C7
:10A6200007680C4EB7420CD171B143681568DC68FD
:10A63000A5420CD39B68F0BC184748F20150F0BC0F
:10A64000704748F20250FAE748F21350F7E748F231
:10A650001450F4E76E5246482DE9F041044617467F
:10A660009846DDE90656FFF7ABFF60B9424639462A
:10A670002046FFF7B9FF30B9324629462046BDE8EB
:10A68000F041FFF7CBBFBDE8F0810000F8B50A4FFD
:10A690000A4C0B4DE41B0121E40829700026A64258
:10A6A00003D102232B700020F8BD57F836309847AD
:10A6B0000028F9D10136F2E7FCD50F00FCD50F00D8
:10A6C00078620020013A02440139824200D2704788
:10A6D00011F8013F02F80139F7E770B516460D464B
:10A6E000FFF7F0FF3246A9193044BDE87040FFF78C
:10A6F000E9BF000070B5144B144A0C21D21AB2FB0A
:10A70000F1F2816911F8025C044635B90069002153
:10A71000914205D1012323600EE04FF0FF30F6E7B0
:10A720001E68AE420CD1461C07D19D68D4E90001D9
:10A73000D4E90223A847206070BD5E688642F4D049
:10A7400001310C33E4E700BF18D60F0024D60F0008
:10A750001EF0040F0CBFEFF30880EFF30980FFF742
:10A76000C9BF00BF007800F0010070470023C0E9B6
:10A770000232C0E900118B781A44026191F903306A
:10A780001A4442610878003018BF0120704710B5A4
:10A7900042681178034600293AD002F10C01416069
:10A7A000147B2CB9C2680168FFF7E0FF204610BD9A
:10A7B0005078117900F03004302C1BD1547B04F018
:10A7C0003004302C1ED190781969091A19610021C2
:10A7D000507810F0300F02BF986801309860907B7D
:10A7E000084419690144196192F90F201144596113
:10A7F0000120DCE700F0F004202C03D1507910FB9D
:10A8000001F1E5E700F0C000802808BF0421DFE780
:10A810000846CCE770B5456804460E4663681A786A
:10A82000B24204D15B7803F00F03082B07D1204616
:10A83000FFF7ADFF6368AB42F0D1002070BD01208F
:10A84000FCE743681A44426011B101399A4201D1D0
:10A850000120704713F8010B01F8010FF6E770B5FE
:10A860004268527802F00F01082986B003461FD1D2
:10A8700003691C6800260CB906B070BD23682673F6
:10A880009D68626829466846FFF770FF6368049315
:10A8900004F10C0305936B7803F0C003802B08BF11
:10A8A000231D684608BF0493FFF7D9FFA468E2E7B9
:10A8B00012F0C00120D102F0300010280ED15A69E8
:10A8C00011705A6818695378946803F00F03072BC6
:10A8D00009D10146204600F017F8CDE79006F0D5E3
:10A8E0005B691970C8E71279214614B102F0F4FAD5
:10A8F000C2E7FCF717FDBFE78029BDD10069002141
:10A9000092060160B8D5EBE77FB50A460146684676
:10A91000FFF72CFF30B16846FFF7A1FF6846FFF74D
:10A9200036FFF7E707B05DF804FB10B501220368B6
:10A930000446984710B1A368013BA36010BD2DE900
:10A94000F34183680746884623B90026304602B0A3
:10A95000BDE8F0810DF10701FFF7E7FF064600288B
:10A96000F3D09DF80740220616D504F07F04072592
:10A97000BB68002BE9D00DF107013846FFF7D5FF82
:10A980000028E2D09DF8072002F07F03AB401C4373
:10A99000130605F1070502D4C8F80040D6E7232DB9
:10A9A000E6D1D2E730B5044685B01546A9B90268AC
:10A9B000114B9A4211D0102D06D82A4669462046DE
:10A9C000FFF7F0FF05B030BD102269462046FFF7C3
:10A9D000E9FF0028F6D0103DEDE7A368AB4201D2B5
:10A9E0000020EFE723682A46204698470028F7D042
:10A9F000A3685D1BA560E5E743A80F00F7B50E4609
:10AA000001A907461546FFF79AFFA8B1019A01234D
:10AA1000D3184FF0000404D2717801F0C0018029EE
:10AA200001D1204608E031799942FAD329463846C7
:10AA3000FFF7B8FF019BEC5403B0F0BD73B50D46B2
:10AA400001A906461446FFF77AFF90B1019AFF2A42
:10AA500011D86B7803F0C003802B02F101010AD0FA
:10AA60002B798B4207D32146304601F8012BFFF7A3
:10AA700099FF02B070BD0020FBE7000010B5034C49
:10AA800082600022C0E90041C26010BD43A80F00EF
:10AA90002DE9F347002580460F462E462C46D8F870
:10AAA000083023B30DF107014046FFF73EFFF0B138
:10AAB0009DF807C00CF07F025FFA82F9A4F1200331
:10AAC000C4F1200109FA03F329FA01F109FA04F2A9
:10AAD0000B431CF0800F45EA020546EA030604F129
:10AAE000070402D1C7E9005602E0462CD7D1002066
:10AAF00002B0BDE8F08773B50C4669461646FFF70D
:10AB0000C7FF68B12379082B0CD1DDE90045C6E900
:10AB10000045DDE90023AB4206BFA2420120002030
:10AB200002B070BD042B04D1009B33601C4600258D
:10AB3000EFE7022B4FF0000004D1009B33809CB262
:10AB40000546E6E7012BEBD1009B337003F0FF04D1
:10AB5000F6E737B50D4669461446FFF799FF30B161
:10AB60002A79082ADDE9003103D1C4E9003103B0B4
:10AB700030BD042A18464FEAE37108D123601A4613
:10AB80000B468B4206BF824201200020EFE7022ADB
:10AB900004D11BB223801AB2D317F2E7012A03D1E2
:10ABA0005BB223705AB2F7E70020E0E7F7B50C4636
:10ABB000002119702170116001A9074615461E4633
:10ABC000FFF7BDFE30B9BB6813B901233370002015
:10ABD00003B0F0BD01990029F7D0CB0801F00701BF
:10ABE0002B602170F4E713B5044605291FD8DFE870
:10ABF00001F0030F151E1E1C012201A92046FFF7BC
:10AC0000D1FE18B19DF90430002BF5DB02B010BD68
:10AC1000082200212046FFF7C5FEF7E701A9FFF74C
:10AC20008EFE0028F2D0019AF3E70422F1E700201B
:10AC3000ECE773B50D4601A90446FFF780FE064612
:10AC400018B90026304602B070BD94E80F0085E8C0
:10AC50000F0001998A42F4D3A960A3685B1AA3602C
:10AC6000F0E700002DE9F04355686B7813F0C0045D
:10AC700089B006468C46174603D0402C6AD0002483
:10AC80000AE003F00F025E4903F03003102B51F885
:10AC9000228020D004D8CBB1204609B0BDE8F08393
:10ACA000202B1ED0302BF7D17B6929781970072A09
:10ACB0000AD17B6838691A792146FCF733FB7B6837
:10ACC00039699868FFF720FE3A6940E03A692946F9
:10ACD000C0470446E0E77B6901221A703A69796847
:10ACE000F6E7BCF1020FD7F8149024D1042A22D839
:10ACF00004A9FFF79EFF04460028C0D0069B2BB195
:10AD0000796899F800304A799A4205D8059B7360B2
:10AD1000069B002BC0D0B2E708793A6900FB0322FA
:10AD200004A8C04728B199F80030013389F80030F1
:10AD3000E4E70446EAE799F800306A799A429ED936
:10AD40003A692979581C89F8000001FB03227968C7
:10AD50003046BDE7D2F81080454655F8043B13B99C
:10AD6000FFF741FFB5E7022914D104A9FFF761FFFE
:10AD7000002884D0D8F8003079682A4604A898477B
:10AD8000044600283FF47BAF069B002BF2D1059BC5
:10AD9000736081E701292BD04CB24CB105297FF4B7
:10ADA0006EAF04220DEB0201FFF7FCFD042424E04A
:10ADB0000DF1040901340B2C3FF461AF0122494627
:10ADC0003046FFF7EFFD00283FF459AF19F9013B7A
:10ADD000002BEFDB0B4B049301ABCDE905340023D3
:10ADE0000793D8F8003079682A4604A8984770E796
:10ADF000082201A9FFF7D6FD08240028EAD13EE782
:10AE00008CD40F0043A80F002DE9F04F91B00446F9
:10AE1000002604A8CDE90266FFF7A8FCA3683BBBA7
:10AE2000DDE9053404A85D78FFF7B1FC0028F7D10F
:10AE300015F0300F03D1059B1B7803B10134002CB2
:10AE400000F0A9806309002202A9934240F09C808F
:10AE500010AA02EB830304F01F04C4F120044FF096
:10AE6000FF3053F8383CE040C31A584258410DE0D7
:10AE70000DF1030301AA0DF102012046FFF796FE32
:10AE800038B99DF80330002BCAD1002011B0BDE8BD
:10AE9000F08F019904A8FFF7BDFC002850D1019B59
:10AEA000B3427DD3059D059A537803F00F03082B19
:10AEB0007FD004A8FFF76BFC059B9D42F3D14FF0B8
:10AEC000FF36019FB7426BD3089B9DF80290D4F8E0
:10AED00008801D684FF0010AA368002D5DD09845D9
:10AEE0009CD12B68D3F800B0BBF1000F08D04B46C3
:10AEF0003A4629462046D8470028C6D0AD68EBE739
:10AF0000D3F808B09BF800309F42F7D16A685946E1
:10AF10000AA8FFF72BFC6B680E9305F10C030F9347
:10AF20009BF8013003F0C003802B04BF2B1D0E9350
:10AF30000AAA85F80CA049462046FFF793FEDBE7F6
:10AF4000059B5B7813F0300F0FD1069A3F2A0CD87F
:10AF5000510910AB03EB810102F01F020123934062
:10AF600051F8382C134341F8383CE5682DB104AB57
:10AF70009DF8022001992046A84704AA9DF80210D6
:10AF80002046FFF76FFE10E051F8225001357FF4A4
:10AF90007DAF013259E7012078E798457FF43EAF55
:10AFA0009DF802102046FFF71EFE00287FF436AF02
:10AFB0006BE7167885E770B50C46064615461146D0
:10AFC0002046FFF7A1FC2A4621463046BDE87040E6
:10AFD000FFF71ABFF0B585B00C468D686946074685
:10AFE0001646FFF726FE68B1A06858B1637803F0F3
:10AFF0003003202B32462946684605D1FFF7DBFF98
:10B00000019B7B6005B0F0BDFFF7FEFEF8E7D3B50E
:10B010000C466946FFF73CFD80B1DDE900130027CF
:10B020004A0801F0010642EAC37256EA07014FEAF4
:10B0300053031CBFD243DB43C4E9002302B0D0BD9D
:10B0400037B50D4669461446FFF7E1FF68B12B7925
:10B05000082B0CD1DDE90001C4E90001DDE9002382
:10B060008B4206BF82420120002003B030BD042B7A
:10B0700003D100982060C117F0E7022B04D1BDF97D
:10B080000000208000B2F6E7012B04D19DF90000FA
:10B09000207040B2EFE70020E7E713B504220C462A
:10B0A0000DEB0201FFF77EFC08B1019B236002B0AB
:10B0B00010BD1146FFF7F1BF13B508220C466946D3
:10B0C000FFF770FC18B1DDE90023C4E9002302B0EA
:10B0D00010BD1146FFF7F0BF062810B5044602D197
:10B0E000002000F06DFF044B1B681BB12046BDE83B
:10B0F0001040184710BD00BF7C62002008B5074B08
:10B1000018600020FFF7E8FF054800F041FF20B974
:10B110000348BDE8084000F063BE08BD7C62002023
:10B12000D9B00F006CDF70476DDF704772DF70477A
:10B1300073DF704774DF704775DF704776DF7047E5
:10B140007ADF70477CDF70477DDF70477FDF7047B5
:10B1500086DF70478FDF704790DF7047A8DF70474A
:10B16000AADF7047ADDF7047AEDF7047B0DF7047D2
:10B17000B1DF7047B5DF704762DF704766DF704749
:10B1800013DF70477FB50023CDF80A30ADF80E30DD
:10B190000A4BADF806109B89ADF8083001238DF8F5
:10B1A0000A300DF10603CDE90430054B02A91888D9
:10B1B000FFF7DAFF07B05DF804FB00BF467300201D
:10B1C0009E5B002001460148FEF7F7BB04D60F0046
:10B1D00030B518228DB000210DEB0200FCF7A2F86B
:10B1E000282308931623ADF806300023CDF80E303F
:10B1F000CDF81230ADF816301A4B02930222062118
:10B2000009251A7099701A71032159220124D970E5
:10B210005A710DF10601FE2258198DF818408DF86B
:10B220002D40ADF80C505C709A71FFF78DFFB8B9E6
:10B23000BDF806201D721119D971BDF80C301A44E1
:10B24000094BADF80C2002A906AA1846FFF76EFFBD
:10B2500030B91878FFF76EFF21461878FFF768FFBE
:10B260000DB030BD5A7300209C5B0020F0B5038800
:10B270001F2B8BB0044600F0C28029D8112B56D06A
:10B2800006D8012B00F0CC80102B42D00BB0F0BDC3
:10B29000142B00F040811A2B34D0132BF6D100234D
:10B2A000A04CADF812300223ADF8103004AA02AB66
:10B2B00042F6052120880593FFF754FF08B1FCF7FB
:10B2C000EEFA00231A4685212088FFF73FFF86E02B
:10B2D000512B00F0AB800ED8232B00F08880502B30
:10B2E00039D0212BD2D1002304A98088ADF81030A9
:10B2F000FFF730FF73E0552B59D0562B00F08680B6
:10B30000522BC3D100231A461946A088FFF730FFFD
:10B3100065E0844B82881A80834A12681C460AB111
:10B320000120904781492088FFF706FFAEE77D4B5B
:10B330004FF6FF721A807E4B1B685A0704D4FFF742
:10B3400047FF08B1FCF7ABFA774B1B68002B9DD089
:10B35000022098479AE7774EC288B3889A4295D1DF
:10B360007548FEF704FB054600288FD0228A04F1B9
:10B37000120101F0B1FD1822002104A8FBF7D2FF51
:10B3800008238DF810306D4B06936D4B0596CDE973
:10B39000073504A8238AADF8243000F017FD0028F3
:10B3A0003FF474AF29466448FEF707FB6EE7C18897
:10B3B00082291AD8CB1E9B070DD0CB1F9BB2013B15
:10B3C0005A4202F0030203F0030301F1FF3158BFB8
:10B3D0005342C91A89B2534B1888FFF7CBFE002895
:10B3E0003FF454AFFCF75BFA50E78321F3E7002208
:10B3F00004A98088CDE90422FFF7AEFEEFE7494BB0
:10B4000000F108011888FFF797FEE8E78379002B21
:10B410007FF43CAF434B13211888FFF78FFEDEE724
:10B42000404B00211888FFF7A9FED8E78379002B4D
:10B430003FF42CAF022B7FF429AF3E4900898A8963
:10B4400090420E467FF422AFA27B012A7FF41EAF0A
:10B4500000220120CDE904228DF81600208AADF8E3
:10B460001800304D608AADF81A0004F114008DF810
:10B4700010300790ADF80A20ADF8083002AA01ABF1
:10B48000098A28880393FFF76DFE2F4660B9184696
:10B49000FFF768F940B940F2FD1304A92888ADF818
:10B4A0001430FFF763FEF1E6002304A93888ADF8F5
:10B4B0001430FFF75BFE014600287FF4E7AE182248
:10B4C00004A8FBF72FFF237D1C4A8DF81030022BB8
:10B4D0000596069216D0062B0ED0012B0ED11948D8
:10B4E00000F06EFD184B1A88184B1A80637D089384
:10B4F000D4F81630099301E0637D089304A800F0A6
:10B5000065FCC3E6A27D637D43EA02230E4A1380F5
:10B510000E4A1380F2E700231A4619468088FFF787
:10B5200017FE5CE79E5B002080730020E6D50F00CD
:10B530007C7300204673002004D60F00B9B50F00BD
:10B54000C5B10F00FCD50F00847300208673002066
:10B5500038B514490A6812F0010321D0124B984201
:10B560001ED0124B18884FF6FF73984213D042F04A
:10B5700004020A601321FFF7E1FD90B90C4DC824C5
:10B5800045F001054FF47A40A847013CFAD1BDE8E7
:10B590003840FEF79DBE074B1878FFF7CBFDF6E766
:10B5A000002038BD7C730020FCD50F009E5B00207E
:10B5B000E0D50F009C5B002010B5044686B0112238
:10B5C000002101A8FBF7AEFE2378082B0BD1374AE8
:10B5D000374913880988013B9BB21380D9B1D3B98D
:10B5E000032311802370627823788DF80530602161
:10B5F000012A8DF804108DF806200ED00B2A12D1E6
:10B6000000F0C8F98DF80700002000F0BDF9042112
:10B6100001A8FFF7B7FD06B010BD062B05D0082B1B
:10B6200029D0032B27D00321F2E7E1688DF807101A
:10B63000D4E90123080A8DF80800080C090E8DF8DA
:10B640000A10110A8DF80B208DF80C10110C120E37
:10B650008DF80E201A0A8DF80F308DF810201A0C74
:10B660001B0E8DF80D108DF809008DF811208DF846
:10B6700012300F21CCE7D4E90123110A8DF80720FD
:10B680008DF80810110C120E8DF80A201A0A8DF888
:10B690000B308DF80C201A0C1B0E8DF809108DF84C
:10B6A0000D208DF80E300B21B2E700BF867300200D
:10B6B000847300202DE9F043444B95B005464FF6C6
:10B6C000FF721A8001204FF659632A4602A98DF8AD
:10B6D0000A00ADF80830FFF741FD0446002871D19B
:10B6E0003B4B04AA03F11007164618685968144624
:10B6F00003C40833BB422246F7D1A91C3046FFF7EA
:10B700003BFD044600285DD101461C220DA8FBF735
:10B7100009FE9DF83430ADF8044043F004038DF881
:10B7200034300223ADF80C30AB788DF80E3004F0D5
:10B73000F80343F003038DF806308023CDE90A4473
:10B74000ADF82C302B4601AE4FF0110903AF33F8A2
:10B75000040B0C9408AA0DA98DF80590CDE9087684
:10B76000FFF7FEFCA046044660BB01461C220DA864
:10B77000FBF7D8FD9DF83430ADF8044023F01803F2
:10B7800043F018038DF834300123ADF80C30AB785A
:10B790008DF80E301723CDE90A44ADF82C302B4636
:10B7A00008F0E80848F0130833F80C0B0C9408AACA
:10B7B0000DA98DF805908DF80680CDE90876FFF784
:10B7C000CFFC0446204615B0BDE8F0839E5B002008
:10B7D000C8D50F0030B5314C236813F0010585B092
:10B7E0005AD12F4B18602F48FEF7AAF8029500F0A7
:10B7F000ECF800284ED12C48FFF7C2FC002849D1B4
:10B80000FEF728FD002845D102A8FEF7EFFD00282D
:10B8100040D102A90120FEF7F3FD00283AD102A889
:10B82000FEF740FE002835D100F08AFB30B11F48FA
:10B8300000F076FB236843F002032360112302A883
:10B840008DF80430FFF770FC20BB9DF8093002A88A
:10B8500001338DF80930FFF765FCD8B92568AB07CF
:10B860004BBF124912498A69072248BF043192B27C
:10B8700001A8FFF767FC68B90E48FFF761FC48B9FB
:10B880000D48FFF717FF28B9FFF7A2FC10B945F0E4
:10B890000105256005B030BD0020FBE77C7300206A
:10B8A0008073002004D60F0000700F00806200201B
:10B8B000D8D50F00E6D50F004673002038B1054BF0
:10B8C0000360054B436001230372002070470E2084
:10B8D000704700BF03B90F00DDB80F0069B10B78E6
:10B8E000022B0CD1022804D003280CBF1120082001
:10B8F000704703230B70002070470E20704708200C
:10B90000704710B50C4681B10B78042B04D8DFE8E2
:10B9100003F00E05030E0E00112010BD00F0E4FA36
:10B920000028FAD102232370F7E70E20F5E708205C
:10B93000F3E743690BB1C068184770470449054BEA
:10B940000022904208BF19460348FEF750B800BFD6
:10B9500020D40F00F4D30F00AC5B002007B5009398
:10B9600013460A4601460348FEF745F803B05DF862
:10B9700004FB00BFAC5B002013460A4601460148A9
:10B98000FEF740B8AC5B0020014B18700B207047ED
:10B9900088730020024B002218781A70704700BF8D
:10B9A0008873002018DF704730B585B00546102237
:10B9B0000C4668460021FBF7B5FCA40868460195D3
:10B9C0000294FFF7EFFF05B030BD1FB50023CDE9AE
:10B9D00001330393684602230093FFF7E3FF05B0AA
:10B9E0005DF804FB4FF000534FF480521A600020C2
:10B9F00070470000014B06201B6818479473002015
:10BA00000A2803D90B38C0B2FFF7BEBF7047000049
:10BA100030B5054687B00020FDF7FCFF044630B185
:10BA2000164A18212846FDF79FFB07B030BD014696
:10BA300018226846FBF776FC04238DF80030104A84
:10BA4000104B116D1B68994214D10F4B0F4C1868A5
:10BA500000F0DEFC8DF80100FFF7D2FF8DF8010049
:10BA6000D5E9011368469847002CDED0204600F047
:10BA7000DBF9DAE701238DF80130F1E711BA0F00A5
:10BA8000987300208C73002090730020F5B90F008C
:10BA900070B5044686B0162200210DF10200FBF7B6
:10BAA00041FC23788DF8003001228DF801200C2B09
:10BAB00000F28681DFE813F00D0079000F007900B5
:10BAC000790084017900700079006E001C002F005D
:10BAD00074008DF80420D4E90113684698479DF856
:10BAE0000130012B00F061819F4B05201B685BE159
:10BAF0004FF08053D3F800210192D3F80421029231
:10BB0000D3F80C2192020492D3F8102192020392EE
:10BB10001B690593DFE743F20403944D18682A6A12
:10BB20009349884214BF01230223012A227C08BFC3
:10BB3000013352B902238DF80430EB6802938D4B28
:10BB40000393C3F57E230493C5E7012A12D18842EB
:10BB500010D14FF440531B78142B8ABF43F21403C7
:10BB600000231B6802934FF48053039343F20803AE
:10BB70001B68E8E79A4209D201238DF80430AB68CC
:10BB8000029300F065FAAB690390DCE7FF238DF8C0
:10BB90000430A0E7237CFAE7238AADF804309AE763
:10BBA000714B07201B68984795E7062B724A01D016
:10BBB000012B01D1216911701178012904D00229CA
:10BBC00056D0002313709CE0013B072B83D801A2C1
:10BBD00052F823F0F5BB0F00D7BA0F0065BC0F0079
:10BBE00035BC0F00D7BA0F005FBC0F00D7BA0F00EB
:10BBF0000DBC0F005C4B03201B689847606900F088
:10BC00000DFBFFF7FDFE8DF8010064E7A18A2069B6
:10BC100000F020FBFFF7F4FE544B8DF80100DA6BC7
:10BC20001B6C0293E3680192002B3FF454AF206930
:10BC3000984750E75149524800F032FBFFF7E0FEC9
:10BC400001288DF801007FF446AF002000F0ECF8E9
:10BC500000283FF440AF0A238DF801303BE74FF452
:10BC600080730393414BDA6B1B6C0192029332E7B2
:10BC7000013B072B3FF62FAF01A252F823F000BF84
:10BC8000A1BC0F00D7BA0F005DBD0F0085BD0F002E
:10BC9000D7BA0F00AFBD0F00D7BA0F0007BD0F0016
:10BCA00000F0F8FA08B90823D6E762690AB9032355
:10BCB000D2E7C2F30B0333B12C4B30495B6D0968FB
:10BCC00013448B42F3D1B2F5805F01D90423C3E75B
:10BCD000264B2A49586D096815188D42E3D85A64D5
:10BCE000DA6C9A6418651863254B61691B6801F664
:10BCF000FF710022090B1844FFF73EFE00283FF4B5
:10BD0000EAAE0523A8E700F0C5FA0028CBD0174D0E
:10BD1000A28AD5E914315B1A696C13448B42C6D8E8
:10BD2000174B2E6B1868D4E903313044FFF716FE29
:10BD300008B1E3687BE7A28A2B6B13442B63A28ACA
:10BD40002B6D13442B6505F14802A18A2069FDF78C
:10BD500043FC2B6DA86402900193BCE6034B9A6CE4
:10BD600002921B6DF8E700BF9473002098730020C7
:10BD7000DBE5B15100700F00A05B00208C73002048
:10BD8000907300200F4BD3E91402596C821A8A4237
:10BD900089D19A6C5865002120465964DA64FFF70E
:10BDA00037FE094B1B680420984706B070BD054B51
:10BDB0009A6C1B6D01934FF48053029203938AE6B1
:10BDC000022349E7987300209473002083681BB115
:10BDD000024A1821FDF7C8B90720704791BA0F0031
:10BDE00038B50546C0B10120FFF7A8FD044648B9A3
:10BDF00000F0F0F900F04EFA30B9084B00201D6059
:10BE0000FFF7C2FD204638BD0549064800F048FA54
:10BE10000128F2D00324F5E70724F3E79473002008
:10BE20008C7300209073002070B5154D154906469F
:10BE30004FF4DC72284601F041F820B90EB9002019
:10BE400070BDB047FBE7002201210E48FFF794FDCB
:10BE5000024698B95821281DFDF7BEFB4FF4DC724D
:10BE600028602946084801F037F833464FF4DC7261
:10BE700005490448FFF772FD0028E0D00320DFE702
:10BE80009873002000F00F005075002038B5FFF7C0
:10BE900055FD0546A8B9114C11494FF4DC722046F6
:10BEA00001F01AF8236801330DD14FF4DC72002140
:10BEB0000A48FBF737FA012300206360FFF7B4FF5D
:10BEC00048B1032507E02A465821201DFDF784FBD1
:10BED00023688342E9D1284638BD00BF987300200B
:10BEE00000F00F0029DF704738B50C4D0446D5F837
:10BEF0009C3178B101330FD1002218210430FDF7B5
:10BF00006BFB2060214605F5CE700722BDE8384066
:10BF1000FFF7E8BF0E2038BD0820FCE700F00F0057
:10BF200050B1064B03F11C0253F8041B40F8041BEC
:10BF30009342F9D1002070470E2070479CF10F000A
:10BF400010B5064C002218212046FDF745FB54F899
:10BF5000043C1B1A5842584110BD00BFA0F10F000D
:10BF600010B50A4CD4F85C31D4F89C21134001334D
:10BF700009D04FF47F20FEF7D7F8572221464FF41F
:10BF80007F20FEF7E9F8002010BD00BF9873002065
:10BF9000F8B5094E094CA41B0746E4080025A54244
:10BFA00001D10020F8BD56F83530384698470028B2
:10BFB000F8D10135F3E700BFFCD50F0004D60F0020
:10BFC000F8B5094E094CA41B0746E40800250436C1
:10BFD000A54201D10020F8BD56F8353038469847C3
:10BFE0000028F8D10135F3E7FCD50F0004D60F0087
:10BFF000034A00230360436083601363704700BFFC
:10C000009873002043F204031A68084B9A4201BF58
:10C0100043F20803186800F6FF7020F47F600CBF3D
:10C0200020F00F004FF48050704700BFDBE5B151A6
:10C0300008B5FFF7E7FF054B9B69184400F6FF7052
:10C0400020F47F6020F00F0008BD00BF987300202F
:10C05000FFF7D8BF4FF480507047000010B50B4C6D
:10C06000236A012B0DD170B1E3694BB1FFF7CAFF11
:10C070000022A169FDF7B0FAE3691B1A5842584142
:10C0800010BD0020FCE71846FAE700BF98730020B7
:10C090002DE9F74F2A4C0193DFF8B0B0236ADFF89F
:10C0A000B0900093054616464FF0000843F2040A8C
:10C0B0005FFA88F7012F18D0022F24D0FFF7B8FFBE
:10C0C0008EB1009B013BD3F1000C4CEB030CA9EBB0
:10C0D0000000A84200D319B3BCF1000F18D0A84249
:10C0E0001ED2042029E0B446F1E7FFF78BFF019B45
:10C0F0003BB9DAF80030B3EB0B0C18BF4FF0010C72
:10C10000E5E7BC46E3E74FF0010C4FF48050DEE773
:10C1100008F10108B8F1030FCAD1A842E1D300E049
:10C1200017B10848FFF764FF002101230648C4E95E
:10C130000413FFF75DFF6562084603B0BDE8F08FAA
:10C1400098730020B0730020BC730020DBE5B15170
:10C1500000400F0030B50E490E4C8A6B85B06D461D
:10C1600028465C31FEF78AFC95E80F0084E80F0052
:10C17000094B0A4AE36000231360094A0949136026
:10C18000094A204605B0BDE83040FEF714BF00BFA5
:10C190009873002044790020ADC10F00A4770020DF
:10C1A000A077002074D50F00C87700205B689A68DC
:10C1B000054B9A4207D1D0E90123044901320A60B4
:10C1C000034A013B13607047F8D40F00A4770020A6
:10C1D000A077002010B50C4CA36B63B900230B4A69
:10C1E0001370FEF753FA4023094A0A490A48BDE88A
:10C1F0001040FEF7A3B9FFF7ADFF0028EED0636A49
:10C20000003318BF0123EAE798730020DC7900208F
:10C2100010CF0F005479002040D40F0038B50546E8
:10C2200078B1B0F5807F0ED8084C094B00211C2254
:10C2300004F13C0019702163FBF774F8A563012039
:10C2400038BD0320FCE70420FAE700BF9873002004
:10C25000DC79002070B50E4C0646E06BA36B4218EB
:10C260009A420D4611D85C300A462044314600F00F
:10C2700033FEE36B04F140022B4429463046E3636E
:10C28000FDF7AAF92064012070BD0320FCE700BF80
:10C2900098730020014B1878704700BFDC790020AC
:10C2A0002DE9FF414C4CD4E90E329A4206460F4626
:10C2B00040F08D80494B1A7898464AB1FFF7B8FE96
:10C2C0003060636A3B600124204604B0BDE8F08121
:10C2D000FFF740FF002840D0414B93F89C101A46CE
:10C2E00011B91B78002B38D0002333603B6092F8E3
:10C2F0009C404CB13B4C92F83831A4F19905202276
:10C30000039224B91324DFE72346374DF7E7002BC8
:10C3100042D103AB0193354B0093354A354B12683C
:10C320001B6835493548FEF797F998BB2378402BB1
:10C3300030D1334A631C1146413453F8040B42F8A0
:10C34000040BA342F9D14023CDE90013274A039BF4
:10C350002C492D48FEF70EF908B10524B4E7281D35
:10C3600000F00CF901280446AED195F8593088F850
:10C3700000009BB995F868202AB3E86E48B3002204
:10C38000386001231146FFF783FED0B9FFF750FE56
:10C39000306099E70A2497E7162495E713F0010027
:10C3A00003D095F85A0000B1E86D9B07E6D595F8E3
:10C3B0006030002BE2D0154B6A6EC3F57E239A42A3
:10C3C00003D9042480E71846EFE71044D6E7082491
:10C3D0007AE70F2478E700BF98730020DC7900200B
:10C3E000C877002001790020CC770020A8770020B2
:10C3F000A4770020A0770020BCD30F00287700206E
:10C400009C79002054790020E079002000700F0012
:10C410002DE9F0434F4BDFF8608193F89C204E4CA0
:10C4200085B003F1A4050833002A08BF1D4603ABFD
:10C43000019302460B4606460F464FF02009CDF801
:10C44000008046494648CDF80C90FEF705F920B12A
:10C4500017254448FFF7CCFD13E04A4605F16F016C
:10C46000404600F02BFD0028F2D195F85530CBB9AD
:10C47000012223626B68E262A360A36CC4E90973C2
:10C480000125202200213848FAF74CFFF422FF2131
:10C490003648FAF747FF002328462363A66405B011
:10C4A000BDE8F08303F00208DB074DD542F2040338
:10C4B000F15803F1A34303F5471303F2D75399420D
:10C4C00045D1AB6D03F5FF5203F6FF731F32C3F383
:10C4D0000B03D31A42F20802B2589A4237D343F2FE
:10C4E00004031B688B4219D14FF440531B78142B63
:10C4F00081BF43F2140318681D4BB0FBF3F006F53F
:10C5000000531B78142B89BF42F214030023F35805
:10C51000174A88BFB3FBF2F398420FD0B8F1000F6F
:10C5200015D01448FFF764FDAC23E362AB6D636381
:10C53000B8F1000FA1D06B68E3609EE7B8F1000F7F
:10C5400014BFAC23A523F0E7AA23E362F0E7052597
:10C550007FE700BFC877002098730020BCD30F008E
:10C5600028770020BC730020D0730020F4730020D3
:10C5700040420F00B073002008770020F0B590F81B
:10C580005430002B63D090F85530032B5FD890F8CF
:10C590006D20032A59D1027A002A58D0C268342A61
:10C5A00057D143F20401027C0C682B498C4241D1E3
:10C5B00022B3416911B300F11004002143F20C06CB
:10C5C000CDB2AA4201D8122017E0358854F8047F72
:10C5D000AF4201F10101F3D10278002A30D0012BE2
:10C5E0001E4B426894BF9B68DB6893428CBF00235C
:10C5F0000123002B14BF01201020F0BD9BB9012A9C
:10C60000EAD941690029E7D143F20C0100F1100495
:10C610000D88194654F8046FAE42DDD00131C9B21D
:10C620008A42F7D1CFE713F1FF3218BF0122002A67
:10C63000D2D1C8E712B14269002AC4D10278F6E724
:10C64000012B14BF0F200120D7E71420D5E70F20BE
:10C65000D3E71120D1E700BFDBE5B151987300208B
:10C66000BFF34F8F0549064BCA6802F4E0621343DB
:10C67000CB60BFF34F8F00BFFDE700BF00ED00E0D0
:10C680000400FA0541DF704708B5FFF7E9FF000035
:10C69000C31E10B50446042B09D8DFE803F00303DA
:10C6A000080F0F00074947F2305000F0EDF8064B35
:10C6B0001B682BB12046BDE810401847FFF7D0FF9C
:10C6C00010BD00BF89C60F00047E00200020704707
:10C6D000274B10B518600020FFF7D8FB40B900F0D9
:10C6E000ABF9012811D010F0FF0F03D002280ED0B3
:10C6F000032010BDFBF72AF9002835D1FFF730FCE5
:10C700000028F5D100F03CF8F2E7FFF7A9FF42F26C
:10C71000107400F015FA174A20211820FCF700FDCC
:10C7200008B1FBF7BCF84FF08043D3F81C2512F09A
:10C73000B10F1EBFD3F81C2502F04E02C3F81C2512
:10C74000FFF7C4FF0028D3D120460B4900F09CF826
:10C750000A48FEF7D3FC0028CAD100F023FAFCF700
:10C7600065FDFFF78FFFF8E747F23054D1E700BFD0
:10C77000047E0020E479002089C60F0091C60F00D6
:10C7800008B5094B4FF0FF32C3F88020C3F8802171
:10C79000C3F88420C3F88421FFF724F94FF48050B4
:10C7A000BDE8084000F002B800E100E070B588B0D4
:10C7B000EFF305810023D0E9002083F3148883F38D
:10C7C000108883F3118883F31388C1F3080139B902
:10C7D00082F308884FF0FF339E46004708B070BDD3
:10C7E000CDE90033CDE9023304934FF0FF33CDE9B7
:10C7F00005304FF080730793A2F120036D461C466D
:10C8000008AE2A4603CAB24220606160154604F1B0
:10C810000804F6D183F308884FF0FF339E466FF08B
:10C8200006031847DAE700B10047704710B5114C0E
:10C830002278B2B94FF08043D3F81824D10311D530
:10C84000FCF738FE08B1FBF72AF80B4A0B48002129
:10C85000FCF75AFE084A0A480121FCF755FE01235D
:10C86000237010BD074A01211160D3F81824D203A8
:10C87000FBD5E5E7087E002027C80F00F0D50F00A4
:10C88000F4D50F000800004070B504460D46FFF7D0
:10C89000CDFF0C48FCF760FE94B14FF400464FF416
:10C8A000FA7000214FF47A72E6FB0401002300F0D5
:10C8B00083F92A460146BDE870400248FCF730BEC5
:10C8C00070BD00BF0C7E002070B504460D46FFF71A
:10C8D000ADFF0C48FCF740FE94B14FF400464FF416
:10C8E000FA7000214FF47A72E6FB0401002300F095
:10C8F00063F92A460146BDE870400248FCF710BEC5
:10C9000070BD00BF247E0020014B01221A707047C9
:10C910003C7E002038B50C4B0C48DA6A5D6A9C6C92
:10C92000AC2A02BF5B6BE418ED1A2A46214600F0E0
:10C93000C5FA38B100F036F929462046BDE838403E
:10C94000FFF732B838BD00BF9873002000700F00A9
:10C950002DE9F74F80468946A9EB0804240B02F61F
:10C96000FF76154600F0ECF8082C28BF08242303B6
:10C97000DFF860B00193360B0DB92B4626E0B442C8
:10C980002CBFB246A2464FF00002514640462CBF93
:10C990002F46019FFEF7F0FF0346B8B9FA1C22F0BC
:10C9A000030249464046FEF7D9FF034670B9DBF85B
:10C9B0003030ED1BB844B9441F44CBF83070FFF75A
:10C9C00033FAA6EB0A0603460028D5D0184603B072
:10C9D000BDE8F08F9873002010B5FFF73BFB154AB8
:10C9E00042F20403916CCC5803F1A34303F54713BF
:10C9F00003F2D7539C4218D1D2E90C32934216D09D
:10CA0000884204D10020BDE81040FFF70DBAD21AC9
:10CA100002F6FF7222F47F6222F00F0219441844DA
:10CA2000FFF796FF0028EDD010BD0320FCE70020A3
:10CA3000FAE700BF9873002070B5264CE36AA52B77
:10CA40002FD003D8012B0BD0002070BDAA2B2CD0E7
:10CA5000AC2BF9D1FFF7C0FF28BBFFF75BFF22E04B
:10CA6000A66C656AFFF7CEFA86422AD1FFF7CAFAAA
:10CA700000222946FCF7B0FDA36A984202BF0123B9
:10CA8000C4E90703A56100241348FFF7B1FA134B6B
:10CA9000134800221A70FFF7C7F980B944B9012082
:10CAA000D3E7FFF799FF0124EEE7FFF733FFEAE74B
:10CAB0000120FFF7D3FA0028F1D00220C5E70320B8
:10CAC000C3E7236BEA1AF1181844FFF741FF002867
:10CAD000D9D1CBE798730020BC7300203C7E0020A6
